{
  "contractName": "GearsVendor",
  "abi": [
    {
      "inputs": [
        {
          "internalType": "address",
          "name": "tokenAddress",
          "type": "address"
        }
      ],
      "stateMutability": "nonpayable",
      "type": "constructor"
    },
    {
      "inputs": [
        {
          "internalType": "address",
          "name": "owner",
          "type": "address"
        }
      ],
      "name": "OwnableInvalidOwner",
      "type": "error"
    },
    {
      "inputs": [
        {
          "internalType": "address",
          "name": "account",
          "type": "address"
        }
      ],
      "name": "OwnableUnauthorizedAccount",
      "type": "error"
    },
    {
      "inputs": [],
      "name": "ReentrancyGuardReentrantCall",
      "type": "error"
    },
    {
      "anonymous": false,
      "inputs": [
        {
          "indexed": false,
          "internalType": "address",
          "name": "owner",
          "type": "address"
        },
        {
          "indexed": false,
          "internalType": "uint256",
          "name": "newAmount",
          "type": "uint256"
        },
        {
          "indexed": false,
          "internalType": "uint256",
          "name": "newPrice",
          "type": "uint256"
        }
      ],
      "name": "OfferUpdated",
      "type": "event"
    },
    {
      "anonymous": false,
      "inputs": [
        {
          "indexed": true,
          "internalType": "address",
          "name": "previousOwner",
          "type": "address"
        },
        {
          "indexed": true,
          "internalType": "address",
          "name": "newOwner",
          "type": "address"
        }
      ],
      "name": "OwnershipTransferred",
      "type": "event"
    },
    {
      "inputs": [
        {
          "internalType": "uint256",
          "name": "",
          "type": "uint256"
        }
      ],
      "name": "offerOwners",
      "outputs": [
        {
          "internalType": "address",
          "name": "",
          "type": "address"
        }
      ],
      "stateMutability": "view",
      "type": "function",
      "constant": true
    },
    {
      "inputs": [
        {
          "internalType": "address",
          "name": "",
          "type": "address"
        }
      ],
      "name": "offersList",
      "outputs": [
        {
          "internalType": "bool",
          "name": "updated",
          "type": "bool"
        },
        {
          "internalType": "uint256",
          "name": "offerAmount",
          "type": "uint256"
        },
        {
          "internalType": "uint256",
          "name": "tokenPrice",
          "type": "uint256"
        }
      ],
      "stateMutability": "view",
      "type": "function",
      "constant": true
    },
    {
      "inputs": [],
      "name": "owner",
      "outputs": [
        {
          "internalType": "address",
          "name": "",
          "type": "address"
        }
      ],
      "stateMutability": "view",
      "type": "function",
      "constant": true
    },
    {
      "inputs": [],
      "name": "renounceOwnership",
      "outputs": [],
      "stateMutability": "nonpayable",
      "type": "function"
    },
    {
      "inputs": [
        {
          "internalType": "address",
          "name": "newOwner",
          "type": "address"
        }
      ],
      "name": "transferOwnership",
      "outputs": [],
      "stateMutability": "nonpayable",
      "type": "function"
    },
    {
      "inputs": [
        {
          "internalType": "uint256",
          "name": "_offerAmount",
          "type": "uint256"
        },
        {
          "internalType": "uint256",
          "name": "_tokenPrice",
          "type": "uint256"
        }
      ],
      "name": "updateOffer",
      "outputs": [],
      "stateMutability": "nonpayable",
      "type": "function"
    },
    {
      "inputs": [
        {
          "internalType": "uint256",
          "name": "_tokenPrice",
          "type": "uint256"
        }
      ],
      "name": "updatePrice",
      "outputs": [],
      "stateMutability": "nonpayable",
      "type": "function"
    },
    {
      "inputs": [
        {
          "internalType": "uint256",
          "name": "_tokenAmount",
          "type": "uint256"
        }
      ],
      "name": "retrieveToken",
      "outputs": [],
      "stateMutability": "nonpayable",
      "type": "function"
    },
    {
      "inputs": [],
      "name": "getMyOffer",
      "outputs": [
        {
          "components": [
            {
              "internalType": "bool",
              "name": "updated",
              "type": "bool"
            },
            {
              "internalType": "uint256",
              "name": "offerAmount",
              "type": "uint256"
            },
            {
              "internalType": "uint256",
              "name": "tokenPrice",
              "type": "uint256"
            }
          ],
          "internalType": "struct GearsVendor.Offer",
          "name": "",
          "type": "tuple"
        }
      ],
      "stateMutability": "view",
      "type": "function",
      "constant": true
    },
    {
      "inputs": [
        {
          "internalType": "address",
          "name": "vendor",
          "type": "address"
        }
      ],
      "name": "getOfferByAddress",
      "outputs": [
        {
          "components": [
            {
              "internalType": "bool",
              "name": "updated",
              "type": "bool"
            },
            {
              "internalType": "uint256",
              "name": "offerAmount",
              "type": "uint256"
            },
            {
              "internalType": "uint256",
              "name": "tokenPrice",
              "type": "uint256"
            }
          ],
          "internalType": "struct GearsVendor.Offer",
          "name": "",
          "type": "tuple"
        }
      ],
      "stateMutability": "view",
      "type": "function",
      "constant": true
    },
    {
      "inputs": [],
      "name": "getAllAddresses",
      "outputs": [
        {
          "internalType": "address[]",
          "name": "",
          "type": "address[]"
        }
      ],
      "stateMutability": "view",
      "type": "function",
      "constant": true
    },
    {
      "inputs": [
        {
          "internalType": "address payable",
          "name": "_offerOwner",
          "type": "address"
        },
        {
          "internalType": "uint256",
          "name": "_buyAmount",
          "type": "uint256"
        },
        {
          "internalType": "uint256",
          "name": "_tokenPrice",
          "type": "uint256"
        }
      ],
      "name": "buyOffer",
      "outputs": [],
      "stateMutability": "payable",
      "type": "function",
      "payable": true
    },
    {
      "inputs": [],
      "name": "transferBalance",
      "outputs": [],
      "stateMutability": "payable",
      "type": "function",
      "payable": true
    },
    {
      "inputs": [],
      "name": "terminate",
      "outputs": [],
      "stateMutability": "nonpayable",
      "type": "function"
    }
  ],
  "bytecode": "0x60806040523480156200001157600080fd5b50604051620022d5380380620022d583398181016040528101906200003791906200023c565b33600073ffffffffffffffffffffffffffffffffffffffff168173ffffffffffffffffffffffffffffffffffffffff1603620000ad5760006040517f1e4fbdf7000000000000000000000000000000000000000000000000000000008152600401620000a491906200027f565b60405180910390fd5b620000be816200010e60201b60201c565b506001808190555080600260006101000a81548173ffffffffffffffffffffffffffffffffffffffff021916908373ffffffffffffffffffffffffffffffffffffffff160217905550506200029c565b60008060009054906101000a900473ffffffffffffffffffffffffffffffffffffffff169050816000806101000a81548173ffffffffffffffffffffffffffffffffffffffff021916908373ffffffffffffffffffffffffffffffffffffffff1602179055508173ffffffffffffffffffffffffffffffffffffffff168173ffffffffffffffffffffffffffffffffffffffff167f8be0079c531659141344cd1fd0a4f28419497f9722a3daafe3b4186f6b6457e060405160405180910390a35050565b600080fd5b600073ffffffffffffffffffffffffffffffffffffffff82169050919050565b60006200020482620001d7565b9050919050565b6200021681620001f7565b81146200022257600080fd5b50565b60008151905062000236816200020b565b92915050565b600060208284031215620002555762000254620001d2565b5b6000620002658482850162000225565b91505092915050565b6200027981620001f7565b82525050565b60006020820190506200029660008301846200026e565b92915050565b61202980620002ac6000396000f3fe6080604052600436106100dd5760003560e01c806366adeb8c1161007f5780638d6cc56d116100595780638d6cc56d1461026c5780638da5cb5b146102955780639516a104146102c0578063f2fde38b146102eb576100dd565b806366adeb8c1461020e578063715018a614610218578063760ede5d1461022f576100dd565b80631301834c116100bb5780631301834c146101615780635542f6801461018c57806355d66298146101b55780635df6f270146101f2576100dd565b80630b7b925b146100e25780630c08bf881461010b5780630e0fd32c14610122575b600080fd5b3480156100ee57600080fd5b5061010960048036038101906101049190611342565b610314565b005b34801561011757600080fd5b50610120610662565b005b34801561012e57600080fd5b50610149600480360381019061014491906113e0565b61068a565b60405161015893929190611437565b60405180910390f35b34801561016d57600080fd5b506101766106c1565b60405161018391906114ce565b60405180910390f35b34801561019857600080fd5b506101b360048036038101906101ae91906114e9565b610747565b005b3480156101c157600080fd5b506101dc60048036038101906101d791906114e9565b6109bc565b6040516101e99190611525565b60405180910390f35b61020c6004803603810190610207919061157e565b6109fb565b005b610216610de4565b005b34801561022457600080fd5b5061022d610e42565b005b34801561023b57600080fd5b50610256600480360381019061025191906113e0565b610e56565b60405161026391906114ce565b60405180910390f35b34801561027857600080fd5b50610293600480360381019061028e91906114e9565b610ede565b005b3480156102a157600080fd5b506102aa611005565b6040516102b79190611525565b60405180910390f35b3480156102cc57600080fd5b506102d561102e565b6040516102e2919061168f565b60405180910390f35b3480156102f757600080fd5b50610312600480360381019061030d91906113e0565b6110bc565b005b61031c611142565b6000821161035f576040517f08c379a000000000000000000000000000000000000000000000000000000000815260040161035690611734565b60405180910390fd5b600081116103a2576040517f08c379a0000000000000000000000000000000000000000000000000000000008152600401610399906117c6565b60405180910390fd5b6000600260009054906101000a900473ffffffffffffffffffffffffffffffffffffffff1673ffffffffffffffffffffffffffffffffffffffff166323b872dd3330866040518463ffffffff1660e01b8152600401610403939291906117e6565b6020604051808303816000875af1158015610422573d6000803e3d6000fd5b505050506040513d601f19601f820116820180604052508101906104469190611849565b905080610488576040517f08c379a000000000000000000000000000000000000000000000000000000000815260040161047f906118e8565b60405180910390fd5b6000600460003373ffffffffffffffffffffffffffffffffffffffff1673ffffffffffffffffffffffffffffffffffffffff1681526020019081526020016000209050600015158160000160009054906101000a900460ff161515036105695760018160000160006101000a81548160ff0219169083151502179055506003339080600181540180825580915050600190039060005260206000200160009091909190916101000a81548173ffffffffffffffffffffffffffffffffffffffff021916908373ffffffffffffffffffffffffffffffffffffffff1602179055505b8381600101600082825461057d9190611937565b9250508190555082816002018190555080600460003373ffffffffffffffffffffffffffffffffffffffff1673ffffffffffffffffffffffffffffffffffffffff1681526020019081526020016000206000820160009054906101000a900460ff168160000160006101000a81548160ff02191690831515021790555060018201548160010155600282015481600201559050507fc815363d5b5cf45d35d9e808cb6cbf4650c1b7f3920018176c480a1270454ffa338260010154836002015460405161064c9392919061196b565b60405180910390a1505061065e611188565b5050565b61066a611191565b610672611005565b73ffffffffffffffffffffffffffffffffffffffff16ff5b60046020528060005260406000206000915090508060000160009054906101000a900460ff16908060010154908060020154905083565b6106c96112e4565b600460003373ffffffffffffffffffffffffffffffffffffffff1673ffffffffffffffffffffffffffffffffffffffff1681526020019081526020016000206040518060600160405290816000820160009054906101000a900460ff1615151515815260200160018201548152602001600282015481525050905090565b61074f611142565b60008111610792576040517f08c379a000000000000000000000000000000000000000000000000000000000815260040161078990611a14565b60405180910390fd5b6000600460003373ffffffffffffffffffffffffffffffffffffffff1673ffffffffffffffffffffffffffffffffffffffff16815260200190815260200160002090508060000160009054906101000a900460ff16610826576040517f08c379a000000000000000000000000000000000000000000000000000000000815260040161081d90611aa6565b60405180910390fd5b818160010154101561086d576040517f08c379a000000000000000000000000000000000000000000000000000000000815260040161086490611b12565b60405180910390fd5b818160010160008282546108819190611b32565b925050819055506000600260009054906101000a900473ffffffffffffffffffffffffffffffffffffffff1673ffffffffffffffffffffffffffffffffffffffff1663a9059cbb33856040518363ffffffff1660e01b81526004016108e7929190611b66565b6020604051808303816000875af1158015610906573d6000803e3d6000fd5b505050506040513d601f19601f8201168201806040525081019061092a9190611849565b90508061096c576040517f08c379a000000000000000000000000000000000000000000000000000000000815260040161096390611c01565b60405180910390fd5b7fc815363d5b5cf45d35d9e808cb6cbf4650c1b7f3920018176c480a1270454ffa33836001015484600201546040516109a79392919061196b565b60405180910390a150506109b9611188565b50565b600381815481106109cc57600080fd5b906000526020600020016000915054906101000a900473ffffffffffffffffffffffffffffffffffffffff1681565b610a03611142565b6000600460008573ffffffffffffffffffffffffffffffffffffffff1673ffffffffffffffffffffffffffffffffffffffff16815260200190815260200160002090508060000160009054906101000a900460ff16610a97576040517f08c379a0000000000000000000000000000000000000000000000000000000008152600401610a8e90611c93565b60405180910390fd5b8373ffffffffffffffffffffffffffffffffffffffff163373ffffffffffffffffffffffffffffffffffffffff1603610b05576040517f08c379a0000000000000000000000000000000000000000000000000000000008152600401610afc90611cff565b60405180910390fd5b60008311610b48576040517f08c379a0000000000000000000000000000000000000000000000000000000008152600401610b3f90611d91565b60405180910390fd5b8281600101541015610b8f576040517f08c379a0000000000000000000000000000000000000000000000000000000008152600401610b8690611e23565b60405180910390fd5b8181600201541115610bd6576040517f08c379a0000000000000000000000000000000000000000000000000000000008152600401610bcd90611e8f565b60405180910390fd5b6000816002015484610be89190611eaf565b905080341015610c2d576040517f08c379a0000000000000000000000000000000000000000000000000000000008152600401610c2490611f3d565b60405180910390fd5b60008134610c3b9190611b32565b905084836001016000828254610c519190611b32565b925050819055508573ffffffffffffffffffffffffffffffffffffffff166108fc839081150290604051600060405180830381858888f19350505050158015610c9e573d6000803e3d6000fd5b506000811115610cf0573373ffffffffffffffffffffffffffffffffffffffff166108fc829081150290604051600060405180830381858888f19350505050158015610cee573d6000803e3d6000fd5b505b600260009054906101000a900473ffffffffffffffffffffffffffffffffffffffff1673ffffffffffffffffffffffffffffffffffffffff1663a9059cbb33876040518363ffffffff1660e01b8152600401610d4d929190611b66565b6020604051808303816000875af1158015610d6c573d6000803e3d6000fd5b505050506040513d601f19601f82011682018060405250810190610d909190611849565b507fc815363d5b5cf45d35d9e808cb6cbf4650c1b7f3920018176c480a1270454ffa8684600101548560020154604051610dcc93929190611fbc565b60405180910390a1505050610ddf611188565b505050565b610dec611191565b6000610df6611005565b90508073ffffffffffffffffffffffffffffffffffffffff166108fc479081150290604051600060405180830381858888f19350505050158015610e3e573d6000803e3d6000fd5b5050565b610e4a611191565b610e546000611218565b565b610e5e6112e4565b600460008373ffffffffffffffffffffffffffffffffffffffff1673ffffffffffffffffffffffffffffffffffffffff1681526020019081526020016000206040518060600160405290816000820160009054906101000a900460ff16151515158152602001600182015481526020016002820154815250509050919050565b60008111610f21576040517f08c379a0000000000000000000000000000000000000000000000000000000008152600401610f18906117c6565b60405180910390fd5b6000600460003373ffffffffffffffffffffffffffffffffffffffff1673ffffffffffffffffffffffffffffffffffffffff16815260200190815260200160002090508060000160009054906101000a900460ff16610fb5576040517f08c379a0000000000000000000000000000000000000000000000000000000008152600401610fac90611aa6565b60405180910390fd5b8181600201819055507fc815363d5b5cf45d35d9e808cb6cbf4650c1b7f3920018176c480a1270454ffa3382600101548360020154604051610ff99392919061196b565b60405180910390a15050565b60008060009054906101000a900473ffffffffffffffffffffffffffffffffffffffff16905090565b606060038054806020026020016040519081016040528092919081815260200182805480156110b257602002820191906000526020600020905b8160009054906101000a900473ffffffffffffffffffffffffffffffffffffffff1673ffffffffffffffffffffffffffffffffffffffff1681526020019060010190808311611068575b5050505050905090565b6110c4611191565b600073ffffffffffffffffffffffffffffffffffffffff168173ffffffffffffffffffffffffffffffffffffffff16036111365760006040517f1e4fbdf700000000000000000000000000000000000000000000000000000000815260040161112d9190611525565b60405180910390fd5b61113f81611218565b50565b60026001540361117e576040517f3ee5aeb500000000000000000000000000000000000000000000000000000000815260040160405180910390fd5b6002600181905550565b60018081905550565b6111996112dc565b73ffffffffffffffffffffffffffffffffffffffff166111b7611005565b73ffffffffffffffffffffffffffffffffffffffff1614611216576111da6112dc565b6040517f118cdaa700000000000000000000000000000000000000000000000000000000815260040161120d9190611525565b60405180910390fd5b565b60008060009054906101000a900473ffffffffffffffffffffffffffffffffffffffff169050816000806101000a81548173ffffffffffffffffffffffffffffffffffffffff021916908373ffffffffffffffffffffffffffffffffffffffff1602179055508173ffffffffffffffffffffffffffffffffffffffff168173ffffffffffffffffffffffffffffffffffffffff167f8be0079c531659141344cd1fd0a4f28419497f9722a3daafe3b4186f6b6457e060405160405180910390a35050565b600033905090565b604051806060016040528060001515815260200160008152602001600081525090565b600080fd5b6000819050919050565b61131f8161130c565b811461132a57600080fd5b50565b60008135905061133c81611316565b92915050565b6000806040838503121561135957611358611307565b5b60006113678582860161132d565b92505060206113788582860161132d565b9150509250929050565b600073ffffffffffffffffffffffffffffffffffffffff82169050919050565b60006113ad82611382565b9050919050565b6113bd816113a2565b81146113c857600080fd5b50565b6000813590506113da816113b4565b92915050565b6000602082840312156113f6576113f5611307565b5b6000611404848285016113cb565b91505092915050565b60008115159050919050565b6114228161140d565b82525050565b6114318161130c565b82525050565b600060608201905061144c6000830186611419565b6114596020830185611428565b6114666040830184611428565b949350505050565b6114778161140d565b82525050565b6114868161130c565b82525050565b6060820160008201516114a2600085018261146e565b5060208201516114b5602085018261147d565b5060408201516114c8604085018261147d565b50505050565b60006060820190506114e3600083018461148c565b92915050565b6000602082840312156114ff576114fe611307565b5b600061150d8482850161132d565b91505092915050565b61151f816113a2565b82525050565b600060208201905061153a6000830184611516565b92915050565b600061154b82611382565b9050919050565b61155b81611540565b811461156657600080fd5b50565b60008135905061157881611552565b92915050565b60008060006060848603121561159757611596611307565b5b60006115a586828701611569565b93505060206115b68682870161132d565b92505060406115c78682870161132d565b9150509250925092565b600081519050919050565b600082825260208201905092915050565b6000819050602082019050919050565b611606816113a2565b82525050565b600061161883836115fd565b60208301905092915050565b6000602082019050919050565b600061163c826115d1565b61164681856115dc565b9350611651836115ed565b8060005b83811015611682578151611669888261160c565b975061167483611624565b925050600181019050611655565b5085935050505092915050565b600060208201905081810360008301526116a98184611631565b905092915050565b600082825260208201905092915050565b7f596f75206861766520746f20616464206174206c6561737420736f6d6520746f60008201527f6b656e7300000000000000000000000000000000000000000000000000000000602082015250565b600061171e6024836116b1565b9150611729826116c2565b604082019050919050565b6000602082019050818103600083015261174d81611711565b9050919050565b7f53706563696679206120707269636520646966666572656e742066726f6d207a60008201527f65726f0000000000000000000000000000000000000000000000000000000000602082015250565b60006117b06023836116b1565b91506117bb82611754565b604082019050919050565b600060208201905081810360008301526117df816117a3565b9050919050565b60006060820190506117fb6000830186611516565b6118086020830185611516565b6118156040830184611428565b949350505050565b6118268161140d565b811461183157600080fd5b50565b6000815190506118438161181d565b92915050565b60006020828403121561185f5761185e611307565b5b600061186d84828501611834565b91505092915050565b7f4661696c656420746f207472616e7366657220746f6b656e732066726f6d207560008201527f73657220746f2076656e646f7200000000000000000000000000000000000000602082015250565b60006118d2602d836116b1565b91506118dd82611876565b604082019050919050565b60006020820190508181036000830152611901816118c5565b9050919050565b7f4e487b7100000000000000000000000000000000000000000000000000000000600052601160045260246000fd5b60006119428261130c565b915061194d8361130c565b925082820190508082111561196557611964611908565b5b92915050565b60006060820190506119806000830186611516565b61198d6020830185611428565b61199a6040830184611428565b949350505050565b7f596f75206861766520746f207265747269657665206174206c6561737420736f60008201527f6d6520746f6b656e730000000000000000000000000000000000000000000000602082015250565b60006119fe6029836116b1565b9150611a09826119a2565b604082019050919050565b60006020820190508181036000830152611a2d816119f1565b9050919050565b7f596f752068617665206e6f74206372656174656420796f7572206f666665722060008201527f7965740000000000000000000000000000000000000000000000000000000000602082015250565b6000611a906023836116b1565b9150611a9b82611a34565b604082019050919050565b60006020820190508181036000830152611abf81611a83565b9050919050565b7f596f752772652061736b696e6720746f6f206d616e7920746f6b656e00000000600082015250565b6000611afc601c836116b1565b9150611b0782611ac6565b602082019050919050565b60006020820190508181036000830152611b2b81611aef565b9050919050565b6000611b3d8261130c565b9150611b488361130c565b9250828203905081811115611b6057611b5f611908565b5b92915050565b6000604082019050611b7b6000830185611516565b611b886020830184611428565b9392505050565b7f4661696c656420746f20726574726965766520746f6b656e732066726f6d206f60008201527f6666657200000000000000000000000000000000000000000000000000000000602082015250565b6000611beb6024836116b1565b9150611bf682611b8f565b604082019050919050565b60006020820190508181036000830152611c1a81611bde565b9050919050565b7f596f752061726520747279696e6720746f206275792066726f6d2061206e6f6e60008201527f2d6578697374696e67206f666665720000000000000000000000000000000000602082015250565b6000611c7d602f836116b1565b9150611c8882611c21565b604082019050919050565b60006020820190508181036000830152611cac81611c70565b9050919050565b7f596f752063616e2774206275792066726f6d20796f757273656c660000000000600082015250565b6000611ce9601b836116b1565b9150611cf482611cb3565b602082019050919050565b60006020820190508181036000830152611d1881611cdc565b9050919050565b7f537065636966792061206e6f6e2d7a65726f20616d6f756e74206f6620746f6b60008201527f656e7320746f2062757900000000000000000000000000000000000000000000602082015250565b6000611d7b602a836116b1565b9150611d8682611d1f565b604082019050919050565b60006020820190508181036000830152611daa81611d6e565b9050919050565b7f596f752061726520747279696e6720746f2062757920746f6f206d616e79207460008201527f6f6b656e73000000000000000000000000000000000000000000000000000000602082015250565b6000611e0d6025836116b1565b9150611e1882611db1565b604082019050919050565b60006020820190508181036000830152611e3c81611e00565b9050919050565b7f5468652070726963652068617320696e63726561736564000000000000000000600082015250565b6000611e796017836116b1565b9150611e8482611e43565b602082019050919050565b60006020820190508181036000830152611ea881611e6c565b9050919050565b6000611eba8261130c565b9150611ec58361130c565b9250828202611ed38161130c565b91508282048414831517611eea57611ee9611908565b5b5092915050565b7f596f75206469646e27742073656e6420656e6f75676820455448000000000000600082015250565b6000611f27601a836116b1565b9150611f3282611ef1565b602082019050919050565b60006020820190508181036000830152611f5681611f1a565b9050919050565b6000819050919050565b6000611f82611f7d611f7884611382565b611f5d565b611382565b9050919050565b6000611f9482611f67565b9050919050565b6000611fa682611f89565b9050919050565b611fb681611f9b565b82525050565b6000606082019050611fd16000830186611fad565b611fde6020830185611428565b611feb6040830184611428565b94935050505056fea2646970667358221220d41cdd32db4158dd7b250ae92263df936bcd981c4f8761ff2bef0e3f711fab3064736f6c63430008120033",
  "immutableReferences": {},
  "source": "// SPDX-License-Identifier: Unlicense\r\n\r\npragma solidity ^0.8.17;\r\n\r\nimport \"./RemoraGears.sol\";\r\nimport \"@openzeppelin/contracts/access/Ownable.sol\";\r\nimport \"@openzeppelin/contracts/utils/ReentrancyGuard.sol\";\r\n\r\n/**\r\n * @title Vendor contract used to implement a marketplace for RGRS\r\n * @author Alessandro Calandrelli\r\n * @author Leonardo Cataldi\r\n * @author Francesco Goberti\r\n * @author Martino Porceddu\r\n * @author Matteo Vicari \r\n */\r\ncontract GearsVendor is Ownable(msg.sender), ReentrancyGuard{\r\n    \r\n    /// @notice Definition of the RemoraGears ERC20 token's contract variable\r\n    RemoraGears GearToken;\r\n    \r\n    /// @notice This constructor links this GearsVendor smart contract to RemoraGears smart contract \r\n    constructor(address tokenAddress) {\r\n        GearToken = RemoraGears(tokenAddress);\r\n    }\r\n    \r\n    /// @notice Data structure that stores details of a sale of tokens on the market\r\n    struct Offer{\r\n        /// @notice Needed to check if a user has an active offer (maximum offers per address = 1)\r\n        bool updated;\r\n        /// @notice Amount of tokens to put on market\r\n        uint256 offerAmount;\r\n        /// @notice Price per token expressed in ethereum\r\n        uint256 tokenPrice; \r\n    }\r\n\r\n    /// @notice Event triggered when a user updates/creates an offer succesfully\r\n    event OfferUpdated(address owner, uint256 newAmount, uint256 newPrice);\r\n    \r\n    /// @notice Array of users with an active offer\r\n    address[] public offerOwners;\r\n    /// @notice Creates a unique relation between address and offer\r\n    mapping(address => Offer) public offersList;\r\n    \r\n    /** \r\n     * @notice Updates an offer or creates it if non existant \r\n     * @param _offerAmount amount of tokens to put on market\r\n     * @param _tokenPrice price per token expressed in ethereum\r\n     */\r\n    function updateOffer(uint256 _offerAmount, uint256 _tokenPrice) public nonReentrant{\r\n        // positivity checks of the parameters\r\n        require(_offerAmount>0,\"You have to add at least some tokens\");\r\n        require(_tokenPrice>0,\"Specify a price different from zero\");\r\n\r\n        // smart contract tranfers the tokens from the offerer address (requires a prior ERC20 approve from msg.sender) to itself\r\n        (bool sent) = GearToken.transferFrom(msg.sender, address(this), _offerAmount);\r\n        // catch of any error that could occur in the transferFrom\r\n        require(sent, \"Failed to transfer tokens from user to vendor\");\r\n  \r\n        // creating/updating the offer associated to the sender's address\r\n        Offer storage offer = offersList[msg.sender];\r\n\r\n        // check if a user has an active offer\r\n        if(offer.updated==false){\r\n            offer.updated=true;\r\n            // if the user is creating the offer for the first time, it must be added to the list of offer owners\r\n            offerOwners.push(msg.sender);\r\n        }\r\n        \r\n        offer.offerAmount += _offerAmount;\r\n        offer.tokenPrice = _tokenPrice;\r\n\r\n        offersList[msg.sender] = offer;\r\n\r\n        // event emitted when a user updates/creates an offer succesfully\r\n        emit OfferUpdated(msg.sender, offer.offerAmount, offer.tokenPrice);\r\n    }\r\n\r\n    /**\r\n     * @notice Updates the price per token expressed in ethereum of an existing offer\r\n     * @param _tokenPrice the new price per token expressed in ethereum\r\n     */\r\n    function updatePrice(uint256 _tokenPrice) public{\r\n        // positivity check of the parameter\r\n        require(_tokenPrice>0,\"Specify a price different from zero\");\r\n        Offer storage offer = offersList[msg.sender];\r\n        // check if msg.sender is trying to update a non existant offer\r\n        require(offer.updated, \"You have not created your offer yet\");\r\n        offer.tokenPrice = _tokenPrice;\r\n\r\n        // event emitted when a user updates the price of an offer succesfully\r\n        emit OfferUpdated(msg.sender, offer.offerAmount, offer.tokenPrice);\r\n    }\r\n\r\n    /**\r\n     * @notice allows a user to withdraw some or all of the tokens in his/her offer\r\n     * @param _tokenAmount amount of tokens to withdraw\r\n     */\r\n    function retrieveToken(uint256 _tokenAmount) public nonReentrant{\r\n\r\n        // positivity check of the parameter\r\n        require(_tokenAmount>0,\"You have to retrieve at least some tokens\");\r\n\r\n        Offer storage offer = offersList[msg.sender];\r\n\r\n        // checks if msg.sender has an active offer with enough tokens\r\n        require(offer.updated, \"You have not created your offer yet\");\r\n        require(offer.offerAmount>=_tokenAmount,\"You're asking too many token\");\r\n\r\n        offer.offerAmount -= _tokenAmount;\r\n\r\n        (bool sent) = GearToken.transfer(msg.sender,_tokenAmount);\r\n\r\n        // checks if transer was successfull otherwise reverts the state\r\n        if (!sent){\r\n            revert(\"Failed to retrieve tokens from offer\");\r\n        }\r\n\r\n        // event emitted when a user withdraws tokens from an offer succesfully\r\n        emit OfferUpdated(msg.sender, offer.offerAmount, offer.tokenPrice);\r\n    }\r\n    \r\n    /**\r\n     * @notice Getter function for msg.sender offer\r\n     * @return offerList offer associated to msg.sender \r\n     */\r\n    function getMyOffer() public view returns(Offer memory) {\r\n        return offersList[msg.sender];\r\n    }\r\n\r\n    /**\r\n     * @notice Getter function for an offer associated to an input address\r\n     * @param vendor The address associated to the offer to retrieve\r\n     * @return offerList offer associated to the input address\r\n     */\r\n    function getOfferByAddress(address vendor) public view returns(Offer memory) {\r\n        return offersList[vendor];\r\n    }\r\n    \r\n    /**\r\n     * @notice Getter function for all the owners of active offers \r\n     * @return offerOwners list of all the addresses associated to active offers\r\n     */\r\n    function getAllAddresses() public view returns(address[] memory){\r\n        return offerOwners;\r\n    }\r\n    \r\n    /**\r\n     * @notice Allows a user to buy tokens from an active offer\r\n     * @param _offerOwner the address of the owner of the offer, payable to enable it to receive funds\r\n     * @param _buyAmount the number of tokens to buy\r\n     * @param _tokenPrice purchase price per token expressed in ethereum \r\n     */\r\n    function buyOffer(address payable _offerOwner, uint256 _buyAmount, uint256 _tokenPrice) public payable nonReentrant{\r\n        \r\n        Offer storage offer = offersList[_offerOwner];\r\n\r\n        // checks if input address has an active offer \r\n        require(offer.updated, \"You are trying to buy from a non-existing offer\");\r\n        // checks if input address is different from msg.sender\r\n        require(msg.sender != _offerOwner, \"You can't buy from yourself\");\r\n        // positivity check of the parameter\r\n        require(_buyAmount > 0, \"Specify a non-zero amount of tokens to buy\");\r\n        // checks if the token amount in the offer is greater or equal than the amount msg.sender is trying to buy\r\n        require(offer.offerAmount >= _buyAmount, \"You are trying to buy too many tokens\");\r\n\r\n        // checks if price per token has not increased \r\n        require(offer.tokenPrice <= _tokenPrice, \"The price has increased\");\r\n\r\n        // computing total cost\r\n        uint256 totalPrice = _buyAmount*(offer.tokenPrice);\r\n        // checks if buyer sent enough ethereum\r\n        require(msg.value >= totalPrice, \"You didn't send enough ETH\");\r\n\r\n        // computing the rest\r\n        uint256 rest = msg.value - totalPrice;\r\n\r\n        // decreasing the value of the initial offer\r\n        offer.offerAmount -= _buyAmount;\r\n        // offerer is paid ETH \r\n        _offerOwner.transfer(totalPrice);\r\n\r\n        // positive rest is refunded to buyer\r\n        if (rest > 0){\r\n            payable(msg.sender).transfer(rest);\r\n        }\r\n\r\n        // transfer of tokens to the buyer\r\n        GearToken.transfer(msg.sender, _buyAmount);\r\n\r\n        // event emitted when a user buys tokens from an offer succesfully\r\n        emit OfferUpdated(_offerOwner, offer.offerAmount, offer.tokenPrice);\r\n    }\r\n    \r\n    /**\r\n     * @notice Contract's owner can withraw eth from contract's entire balance\r\n     */\r\n    function transferBalance() external payable onlyOwner{\r\n        address payable ownerAddress = payable(owner());\r\n        ownerAddress.transfer(address(this).balance);\r\n    }\r\n\r\n    /**\r\n     * @notice Owner can destroy the contract withdrawing its balance\r\n     */\r\n    function terminate() external onlyOwner{\r\n        selfdestruct(payable(owner()));\r\n    }\r\n}",
  "sourcePath": "C:\\Apache24\\htdocs\\smart_contract\\contracts\\GearsVendor.sol",
  "compiler": {
    "name": "solc",
    "version": "0.8.18+commit.87f61d96.Emscripten.clang"
  },
  "schemaVersion": "3.4.16",
  "updatedAt": "2024-02-06T18:06:07.715Z",
  "networkType": "ethereum",
  "devdoc": {
    "author": "Alessandro CalandrelliLeonardo CataldiFrancesco GobertiMartino PorcedduMatteo Vicari ",
    "errors": {
      "OwnableInvalidOwner(address)": [
        {
          "details": "The owner is not a valid owner account. (eg. `address(0)`)"
        }
      ],
      "OwnableUnauthorizedAccount(address)": [
        {
          "details": "The caller account is not authorized to perform an operation."
        }
      ],
      "ReentrancyGuardReentrantCall()": [
        {
          "details": "Unauthorized reentrant call."
        }
      ]
    },
    "kind": "dev",
    "methods": {
      "buyOffer(address,uint256,uint256)": {
        "params": {
          "_buyAmount": "the number of tokens to buy",
          "_offerOwner": "the address of the owner of the offer, payable to enable it to receive funds",
          "_tokenPrice": "purchase price per token expressed in ethereum "
        }
      },
      "getAllAddresses()": {
        "returns": {
          "_0": "offerOwners list of all the addresses associated to active offers"
        }
      },
      "getMyOffer()": {
        "returns": {
          "_0": "offerList offer associated to msg.sender "
        }
      },
      "getOfferByAddress(address)": {
        "params": {
          "vendor": "The address associated to the offer to retrieve"
        },
        "returns": {
          "_0": "offerList offer associated to the input address"
        }
      },
      "owner()": {
        "details": "Returns the address of the current owner."
      },
      "renounceOwnership()": {
        "details": "Leaves the contract without owner. It will not be possible to call `onlyOwner` functions. Can only be called by the current owner. NOTE: Renouncing ownership will leave the contract without an owner, thereby disabling any functionality that is only available to the owner."
      },
      "retrieveToken(uint256)": {
        "params": {
          "_tokenAmount": "amount of tokens to withdraw"
        }
      },
      "transferOwnership(address)": {
        "details": "Transfers ownership of the contract to a new account (`newOwner`). Can only be called by the current owner."
      },
      "updateOffer(uint256,uint256)": {
        "params": {
          "_offerAmount": "amount of tokens to put on market",
          "_tokenPrice": "price per token expressed in ethereum"
        }
      },
      "updatePrice(uint256)": {
        "params": {
          "_tokenPrice": "the new price per token expressed in ethereum"
        }
      }
    },
    "title": "Vendor contract used to implement a marketplace for RGRS",
    "version": 1
  },
  "userdoc": {
    "events": {
      "OfferUpdated(address,uint256,uint256)": {
        "notice": "Event triggered when a user updates/creates an offer succesfully"
      }
    },
    "kind": "user",
    "methods": {
      "buyOffer(address,uint256,uint256)": {
        "notice": "Allows a user to buy tokens from an active offer"
      },
      "constructor": {
        "notice": "This constructor links this GearsVendor smart contract to RemoraGears smart contract "
      },
      "getAllAddresses()": {
        "notice": "Getter function for all the owners of active offers "
      },
      "getMyOffer()": {
        "notice": "Getter function for msg.sender offer"
      },
      "getOfferByAddress(address)": {
        "notice": "Getter function for an offer associated to an input address"
      },
      "offerOwners(uint256)": {
        "notice": "Array of users with an active offer"
      },
      "offersList(address)": {
        "notice": "Creates a unique relation between address and offer"
      },
      "retrieveToken(uint256)": {
        "notice": "allows a user to withdraw some or all of the tokens in his/her offer"
      },
      "terminate()": {
        "notice": "Owner can destroy the contract withdrawing its balance"
      },
      "transferBalance()": {
        "notice": "Contract's owner can withraw eth from contract's entire balance"
      },
      "updateOffer(uint256,uint256)": {
        "notice": "Updates an offer or creates it if non existant "
      },
      "updatePrice(uint256)": {
        "notice": "Updates the price per token expressed in ethereum of an existing offer"
      }
    },
    "version": 1
  }
}