{
  "contractName": "RemoraGears",
  "abi": [
    {
      "inputs": [
        {
          "internalType": "uint256",
          "name": "initialSupply",
          "type": "uint256"
        }
      ],
      "stateMutability": "nonpayable",
      "type": "constructor"
    },
    {
      "inputs": [
        {
          "internalType": "address",
          "name": "spender",
          "type": "address"
        },
        {
          "internalType": "uint256",
          "name": "allowance",
          "type": "uint256"
        },
        {
          "internalType": "uint256",
          "name": "needed",
          "type": "uint256"
        }
      ],
      "name": "ERC20InsufficientAllowance",
      "type": "error"
    },
    {
      "inputs": [
        {
          "internalType": "address",
          "name": "sender",
          "type": "address"
        },
        {
          "internalType": "uint256",
          "name": "balance",
          "type": "uint256"
        },
        {
          "internalType": "uint256",
          "name": "needed",
          "type": "uint256"
        }
      ],
      "name": "ERC20InsufficientBalance",
      "type": "error"
    },
    {
      "inputs": [
        {
          "internalType": "address",
          "name": "approver",
          "type": "address"
        }
      ],
      "name": "ERC20InvalidApprover",
      "type": "error"
    },
    {
      "inputs": [
        {
          "internalType": "address",
          "name": "receiver",
          "type": "address"
        }
      ],
      "name": "ERC20InvalidReceiver",
      "type": "error"
    },
    {
      "inputs": [
        {
          "internalType": "address",
          "name": "sender",
          "type": "address"
        }
      ],
      "name": "ERC20InvalidSender",
      "type": "error"
    },
    {
      "inputs": [
        {
          "internalType": "address",
          "name": "spender",
          "type": "address"
        }
      ],
      "name": "ERC20InvalidSpender",
      "type": "error"
    },
    {
      "inputs": [
        {
          "internalType": "address",
          "name": "owner",
          "type": "address"
        }
      ],
      "name": "OwnableInvalidOwner",
      "type": "error"
    },
    {
      "inputs": [
        {
          "internalType": "address",
          "name": "account",
          "type": "address"
        }
      ],
      "name": "OwnableUnauthorizedAccount",
      "type": "error"
    },
    {
      "anonymous": false,
      "inputs": [
        {
          "indexed": true,
          "internalType": "address",
          "name": "owner",
          "type": "address"
        },
        {
          "indexed": true,
          "internalType": "address",
          "name": "spender",
          "type": "address"
        },
        {
          "indexed": false,
          "internalType": "uint256",
          "name": "value",
          "type": "uint256"
        }
      ],
      "name": "Approval",
      "type": "event"
    },
    {
      "anonymous": false,
      "inputs": [
        {
          "indexed": true,
          "internalType": "address",
          "name": "previousOwner",
          "type": "address"
        },
        {
          "indexed": true,
          "internalType": "address",
          "name": "newOwner",
          "type": "address"
        }
      ],
      "name": "OwnershipTransferred",
      "type": "event"
    },
    {
      "anonymous": false,
      "inputs": [
        {
          "indexed": true,
          "internalType": "address",
          "name": "from",
          "type": "address"
        },
        {
          "indexed": true,
          "internalType": "address",
          "name": "to",
          "type": "address"
        },
        {
          "indexed": false,
          "internalType": "uint256",
          "name": "value",
          "type": "uint256"
        }
      ],
      "name": "Transfer",
      "type": "event"
    },
    {
      "anonymous": false,
      "inputs": [
        {
          "indexed": false,
          "internalType": "bytes32",
          "name": "returnValue",
          "type": "bytes32"
        }
      ],
      "name": "providedTravelIdHash",
      "type": "event"
    },
    {
      "inputs": [
        {
          "internalType": "address",
          "name": "owner",
          "type": "address"
        },
        {
          "internalType": "address",
          "name": "spender",
          "type": "address"
        }
      ],
      "name": "allowance",
      "outputs": [
        {
          "internalType": "uint256",
          "name": "",
          "type": "uint256"
        }
      ],
      "stateMutability": "view",
      "type": "function",
      "constant": true
    },
    {
      "inputs": [
        {
          "internalType": "address",
          "name": "spender",
          "type": "address"
        },
        {
          "internalType": "uint256",
          "name": "value",
          "type": "uint256"
        }
      ],
      "name": "approve",
      "outputs": [
        {
          "internalType": "bool",
          "name": "",
          "type": "bool"
        }
      ],
      "stateMutability": "nonpayable",
      "type": "function"
    },
    {
      "inputs": [
        {
          "internalType": "address",
          "name": "account",
          "type": "address"
        }
      ],
      "name": "balanceOf",
      "outputs": [
        {
          "internalType": "uint256",
          "name": "",
          "type": "uint256"
        }
      ],
      "stateMutability": "view",
      "type": "function",
      "constant": true
    },
    {
      "inputs": [
        {
          "internalType": "address",
          "name": "",
          "type": "address"
        },
        {
          "internalType": "uint256",
          "name": "",
          "type": "uint256"
        }
      ],
      "name": "completedTrips",
      "outputs": [
        {
          "internalType": "bytes32",
          "name": "tripIdentifier",
          "type": "bytes32"
        },
        {
          "internalType": "bytes32",
          "name": "salt",
          "type": "bytes32"
        }
      ],
      "stateMutability": "view",
      "type": "function",
      "constant": true
    },
    {
      "inputs": [],
      "name": "mintedTokens",
      "outputs": [
        {
          "internalType": "uint256",
          "name": "",
          "type": "uint256"
        }
      ],
      "stateMutability": "view",
      "type": "function",
      "constant": true
    },
    {
      "inputs": [],
      "name": "name",
      "outputs": [
        {
          "internalType": "string",
          "name": "",
          "type": "string"
        }
      ],
      "stateMutability": "view",
      "type": "function",
      "constant": true
    },
    {
      "inputs": [
        {
          "internalType": "address",
          "name": "",
          "type": "address"
        },
        {
          "internalType": "uint256",
          "name": "",
          "type": "uint256"
        }
      ],
      "name": "ongoingTrips",
      "outputs": [
        {
          "internalType": "bytes32",
          "name": "tripIdentifier",
          "type": "bytes32"
        },
        {
          "internalType": "uint256",
          "name": "numberOfParticipants",
          "type": "uint256"
        },
        {
          "internalType": "uint256",
          "name": "numberOfConfirmations",
          "type": "uint256"
        },
        {
          "internalType": "uint256",
          "name": "requiredPayment",
          "type": "uint256"
        },
        {
          "internalType": "bytes32",
          "name": "salt",
          "type": "bytes32"
        }
      ],
      "stateMutability": "view",
      "type": "function",
      "constant": true
    },
    {
      "inputs": [],
      "name": "owner",
      "outputs": [
        {
          "internalType": "address",
          "name": "",
          "type": "address"
        }
      ],
      "stateMutability": "view",
      "type": "function",
      "constant": true
    },
    {
      "inputs": [],
      "name": "renounceOwnership",
      "outputs": [],
      "stateMutability": "nonpayable",
      "type": "function"
    },
    {
      "inputs": [],
      "name": "symbol",
      "outputs": [
        {
          "internalType": "string",
          "name": "",
          "type": "string"
        }
      ],
      "stateMutability": "view",
      "type": "function",
      "constant": true
    },
    {
      "inputs": [],
      "name": "totalSupply",
      "outputs": [
        {
          "internalType": "uint256",
          "name": "",
          "type": "uint256"
        }
      ],
      "stateMutability": "view",
      "type": "function",
      "constant": true
    },
    {
      "inputs": [
        {
          "internalType": "address",
          "name": "to",
          "type": "address"
        },
        {
          "internalType": "uint256",
          "name": "value",
          "type": "uint256"
        }
      ],
      "name": "transfer",
      "outputs": [
        {
          "internalType": "bool",
          "name": "",
          "type": "bool"
        }
      ],
      "stateMutability": "nonpayable",
      "type": "function"
    },
    {
      "inputs": [
        {
          "internalType": "address",
          "name": "from",
          "type": "address"
        },
        {
          "internalType": "address",
          "name": "to",
          "type": "address"
        },
        {
          "internalType": "uint256",
          "name": "value",
          "type": "uint256"
        }
      ],
      "name": "transferFrom",
      "outputs": [
        {
          "internalType": "bool",
          "name": "",
          "type": "bool"
        }
      ],
      "stateMutability": "nonpayable",
      "type": "function"
    },
    {
      "inputs": [
        {
          "internalType": "address",
          "name": "newOwner",
          "type": "address"
        }
      ],
      "name": "transferOwnership",
      "outputs": [],
      "stateMutability": "nonpayable",
      "type": "function"
    },
    {
      "inputs": [],
      "name": "tripsBeforeMinting",
      "outputs": [
        {
          "internalType": "uint256",
          "name": "",
          "type": "uint256"
        }
      ],
      "stateMutability": "view",
      "type": "function",
      "constant": true
    },
    {
      "inputs": [
        {
          "internalType": "address",
          "name": "",
          "type": "address"
        }
      ],
      "name": "unmintedTripsNumber",
      "outputs": [
        {
          "internalType": "uint256",
          "name": "",
          "type": "uint256"
        }
      ],
      "stateMutability": "view",
      "type": "function",
      "constant": true
    },
    {
      "inputs": [
        {
          "internalType": "bytes32",
          "name": "_unsaltedIdentifier",
          "type": "bytes32"
        },
        {
          "internalType": "uint256",
          "name": "_numberOfParticipants",
          "type": "uint256"
        },
        {
          "internalType": "address[]",
          "name": "_addressesOfParticipants",
          "type": "address[]"
        },
        {
          "internalType": "uint256",
          "name": "_requiredPayment",
          "type": "uint256"
        }
      ],
      "name": "createNewTrip",
      "outputs": [
        {
          "internalType": "bytes32",
          "name": "",
          "type": "bytes32"
        }
      ],
      "stateMutability": "nonpayable",
      "type": "function"
    },
    {
      "inputs": [
        {
          "internalType": "bytes32",
          "name": "_tripIdentifier",
          "type": "bytes32"
        }
      ],
      "name": "endTrip",
      "outputs": [],
      "stateMutability": "nonpayable",
      "type": "function"
    },
    {
      "inputs": [
        {
          "internalType": "address",
          "name": "_driverAddress",
          "type": "address"
        },
        {
          "internalType": "bytes32",
          "name": "_tripIdentifier",
          "type": "bytes32"
        }
      ],
      "name": "confirmTripParticipation",
      "outputs": [],
      "stateMutability": "nonpayable",
      "type": "function"
    },
    {
      "inputs": [
        {
          "internalType": "address",
          "name": "driver_address",
          "type": "address"
        },
        {
          "internalType": "bytes32",
          "name": "trip_identifier",
          "type": "bytes32"
        }
      ],
      "name": "hasEveryOnePaid",
      "outputs": [
        {
          "internalType": "bool",
          "name": "",
          "type": "bool"
        }
      ],
      "stateMutability": "view",
      "type": "function",
      "constant": true
    },
    {
      "inputs": [
        {
          "internalType": "address",
          "name": "to",
          "type": "address"
        },
        {
          "internalType": "uint256",
          "name": "amount",
          "type": "uint256"
        }
      ],
      "name": "mintTokensForAdmins",
      "outputs": [],
      "stateMutability": "nonpayable",
      "type": "function"
    },
    {
      "inputs": [],
      "name": "mintTokensByTrips",
      "outputs": [],
      "stateMutability": "nonpayable",
      "type": "function"
    },
    {
      "inputs": [
        {
          "internalType": "uint256",
          "name": "newValue",
          "type": "uint256"
        }
      ],
      "name": "updateMintingAmount",
      "outputs": [],
      "stateMutability": "nonpayable",
      "type": "function"
    },
    {
      "inputs": [
        {
          "internalType": "uint256",
          "name": "newValue",
          "type": "uint256"
        }
      ],
      "name": "updateMintingTripsNumber",
      "outputs": [],
      "stateMutability": "nonpayable",
      "type": "function"
    },
    {
      "inputs": [
        {
          "internalType": "address",
          "name": "target",
          "type": "address"
        }
      ],
      "name": "unmintedTripsOf",
      "outputs": [
        {
          "internalType": "uint256",
          "name": "",
          "type": "uint256"
        }
      ],
      "stateMutability": "view",
      "type": "function",
      "constant": true
    },
    {
      "inputs": [],
      "name": "transferBalance",
      "outputs": [],
      "stateMutability": "payable",
      "type": "function",
      "payable": true
    },
    {
      "inputs": [],
      "name": "terminate",
      "outputs": [],
      "stateMutability": "nonpayable",
      "type": "function"
    },
    {
      "inputs": [],
      "name": "decimals",
      "outputs": [
        {
          "internalType": "uint8",
          "name": "",
          "type": "uint8"
        }
      ],
      "stateMutability": "view",
      "type": "function",
      "constant": true
    },
    {
      "inputs": [
        {
          "internalType": "address",
          "name": "driver",
          "type": "address"
        }
      ],
      "name": "retrieveConcludedTripsFromAddress",
      "outputs": [
        {
          "components": [
            {
              "internalType": "bytes32",
              "name": "tripIdentifier",
              "type": "bytes32"
            },
            {
              "internalType": "bytes32",
              "name": "salt",
              "type": "bytes32"
            }
          ],
          "internalType": "struct RemoraGears.ClosedTrip[]",
          "name": "",
          "type": "tuple[]"
        }
      ],
      "stateMutability": "view",
      "type": "function",
      "constant": true
    },
    {
      "inputs": [
        {
          "internalType": "address",
          "name": "driver",
          "type": "address"
        }
      ],
      "name": "getOngoingTripsByAddress",
      "outputs": [
        {
          "components": [
            {
              "internalType": "bytes32",
              "name": "tripIdentifier",
              "type": "bytes32"
            },
            {
              "internalType": "uint256",
              "name": "numberOfParticipants",
              "type": "uint256"
            },
            {
              "internalType": "address[]",
              "name": "addressesOfParticipants",
              "type": "address[]"
            },
            {
              "internalType": "uint256",
              "name": "numberOfConfirmations",
              "type": "uint256"
            },
            {
              "internalType": "uint256",
              "name": "requiredPayment",
              "type": "uint256"
            },
            {
              "internalType": "bytes32",
              "name": "salt",
              "type": "bytes32"
            }
          ],
          "internalType": "struct RemoraGears.Trip[]",
          "name": "",
          "type": "tuple[]"
        }
      ],
      "stateMutability": "view",
      "type": "function",
      "constant": true
    },
    {
      "inputs": [
        {
          "internalType": "address",
          "name": "from",
          "type": "address"
        }
      ],
      "name": "addTripsForMinting",
      "outputs": [],
      "stateMutability": "nonpayable",
      "type": "function"
    }
  ],
  "bytecode": "0x60806040523480156200001157600080fd5b5060405162003ea438038062003ea483398181016040528101906200003791906200053c565b336040518060400160405280600b81526020017f52656d6f726147656172730000000000000000000000000000000000000000008152506040518060400160405280600481526020017f52475253000000000000000000000000000000000000000000000000000000008152508160039081620000b59190620007de565b508060049081620000c79190620007de565b505050600073ffffffffffffffffffffffffffffffffffffffff168173ffffffffffffffffffffffffffffffffffffffff16036200013f5760006040517f1e4fbdf70000000000000000000000000000000000000000000000000000000081526004016200013691906200090a565b60405180910390fd5b62000150816200017960201b60201c565b506200016333826200023f60201b60201c565b6005600981905550600a808190555050620009fc565b6000600560009054906101000a900473ffffffffffffffffffffffffffffffffffffffff16905081600560006101000a81548173ffffffffffffffffffffffffffffffffffffffff021916908373ffffffffffffffffffffffffffffffffffffffff1602179055508173ffffffffffffffffffffffffffffffffffffffff168173ffffffffffffffffffffffffffffffffffffffff167f8be0079c531659141344cd1fd0a4f28419497f9722a3daafe3b4186f6b6457e060405160405180910390a35050565b600073ffffffffffffffffffffffffffffffffffffffff168273ffffffffffffffffffffffffffffffffffffffff1603620002b45760006040517fec442f05000000000000000000000000000000000000000000000000000000008152600401620002ab91906200090a565b60405180910390fd5b620002c860008383620002cc60201b60201c565b5050565b600073ffffffffffffffffffffffffffffffffffffffff168373ffffffffffffffffffffffffffffffffffffffff16036200032257806002600082825462000315919062000956565b92505081905550620003f8565b60008060008573ffffffffffffffffffffffffffffffffffffffff1673ffffffffffffffffffffffffffffffffffffffff16815260200190815260200160002054905081811015620003b1578381836040517fe450d38c000000000000000000000000000000000000000000000000000000008152600401620003a893929190620009a2565b60405180910390fd5b8181036000808673ffffffffffffffffffffffffffffffffffffffff1673ffffffffffffffffffffffffffffffffffffffff16815260200190815260200160002081905550505b600073ffffffffffffffffffffffffffffffffffffffff168273ffffffffffffffffffffffffffffffffffffffff160362000443578060026000828254039250508190555062000490565b806000808473ffffffffffffffffffffffffffffffffffffffff1673ffffffffffffffffffffffffffffffffffffffff168152602001908152602001600020600082825401925050819055505b8173ffffffffffffffffffffffffffffffffffffffff168373ffffffffffffffffffffffffffffffffffffffff167fddf252ad1be2c89b69c2b068fc378daa952ba7f163c4a11628f55a4df523b3ef83604051620004ef9190620009df565b60405180910390a3505050565b600080fd5b6000819050919050565b620005168162000501565b81146200052257600080fd5b50565b60008151905062000536816200050b565b92915050565b600060208284031215620005555762000554620004fc565b5b6000620005658482850162000525565b91505092915050565b600081519050919050565b7f4e487b7100000000000000000000000000000000000000000000000000000000600052604160045260246000fd5b7f4e487b7100000000000000000000000000000000000000000000000000000000600052602260045260246000fd5b60006002820490506001821680620005f057607f821691505b602082108103620006065762000605620005a8565b5b50919050565b60008190508160005260206000209050919050565b60006020601f8301049050919050565b600082821b905092915050565b600060088302620006707fffffffffffffffffffffffffffffffffffffffffffffffffffffffffffffffff8262000631565b6200067c868362000631565b95508019841693508086168417925050509392505050565b6000819050919050565b6000620006bf620006b9620006b38462000501565b62000694565b62000501565b9050919050565b6000819050919050565b620006db836200069e565b620006f3620006ea82620006c6565b8484546200063e565b825550505050565b600090565b6200070a620006fb565b62000717818484620006d0565b505050565b5b818110156200073f576200073360008262000700565b6001810190506200071d565b5050565b601f8211156200078e5762000758816200060c565b620007638462000621565b8101602085101562000773578190505b6200078b620007828562000621565b8301826200071c565b50505b505050565b600082821c905092915050565b6000620007b36000198460080262000793565b1980831691505092915050565b6000620007ce8383620007a0565b9150826002028217905092915050565b620007e9826200056e565b67ffffffffffffffff81111562000805576200080462000579565b5b620008118254620005d7565b6200081e82828562000743565b600060209050601f83116001811462000856576000841562000841578287015190505b6200084d8582620007c0565b865550620008bd565b601f19841662000866866200060c565b60005b82811015620008905784890151825560018201915060208501945060208101905062000869565b86831015620008b05784890151620008ac601f891682620007a0565b8355505b6001600288020188555050505b505050505050565b600073ffffffffffffffffffffffffffffffffffffffff82169050919050565b6000620008f282620008c5565b9050919050565b6200090481620008e5565b82525050565b6000602082019050620009216000830184620008f9565b92915050565b7f4e487b7100000000000000000000000000000000000000000000000000000000600052601160045260246000fd5b6000620009638262000501565b9150620009708362000501565b92508282019050808211156200098b576200098a62000927565b5b92915050565b6200099c8162000501565b82525050565b6000606082019050620009b96000830186620008f9565b620009c8602083018562000991565b620009d7604083018462000991565b949350505050565b6000602082019050620009f6600083018462000991565b92915050565b6134988062000a0c6000396000f3fe6080604052600436106101d85760003560e01c80638da5cb5b11610102578063bc3ed27711610095578063e659a74311610064578063e659a743146106de578063f2fde38b14610707578063f4ac330e14610730578063f5924db814610759576101d8565b8063bc3ed27714610610578063c17d63cc14610639578063dd62ed3e14610676578063e122a48d146106b3576101d8565b8063a149909b116100d1578063a149909b14610544578063a9059cbb14610581578063b7434721146105be578063ba68a47b146105e7576101d8565b80638da5cb5b1461047457806395d89b411461049f57806396a2c9f9146104ca578063977beb4314610507576101d8565b80633c6b301b1161017a578063715018a611610149578063715018a6146103b35780638175d462146103ca57806383418f29146104085780638d75fe0514610449576101d8565b80633c6b301b146103065780634f91a4e51461032f57806366adeb8c1461036c57806370a0823114610376576101d8565b806318160ddd116101b657806318160ddd1461025c5780631f39d1761461028757806323b872dd1461029e578063313ce567146102db576101d8565b806306fdde03146101dd578063095ea7b3146102085780630c08bf8814610245575b600080fd5b3480156101e957600080fd5b506101f2610796565b6040516101ff91906124ac565b60405180910390f35b34801561021457600080fd5b5061022f600480360381019061022a9190612576565b610828565b60405161023c91906125d1565b60405180910390f35b34801561025157600080fd5b5061025a61084b565b005b34801561026857600080fd5b50610271610873565b60405161027e91906125fb565b60405180910390f35b34801561029357600080fd5b5061029c61087d565b005b3480156102aa57600080fd5b506102c560048036038101906102c09190612616565b610931565b6040516102d291906125d1565b60405180910390f35b3480156102e757600080fd5b506102f0610960565b6040516102fd9190612685565b60405180910390f35b34801561031257600080fd5b5061032d600480360381019061032891906126d6565b610965565b005b34801561033b57600080fd5b506103566004803603810190610351919061284b565b610c0a565b60405161036391906128dd565b60405180910390f35b610374610e72565b005b34801561038257600080fd5b5061039d600480360381019061039891906128f8565b610ed0565b6040516103aa91906125fb565b60405180910390f35b3480156103bf57600080fd5b506103c8610f18565b005b3480156103d657600080fd5b506103f160048036038101906103ec9190612576565b610f2c565b6040516103ff929190612925565b60405180910390f35b34801561041457600080fd5b5061042f600480360381019061042a9190612576565b610f6d565b60405161044095949392919061294e565b60405180910390f35b34801561045557600080fd5b5061045e610fc0565b60405161046b91906125fb565b60405180910390f35b34801561048057600080fd5b50610489610fc6565b60405161049691906129b0565b60405180910390f35b3480156104ab57600080fd5b506104b4610ff0565b6040516104c191906124ac565b60405180910390f35b3480156104d657600080fd5b506104f160048036038101906104ec91906128f8565b611082565b6040516104fe9190612bf2565b60405180910390f35b34801561051357600080fd5b5061052e60048036038101906105299190612c14565b6111e0565b60405161053b91906125d1565b60405180910390f35b34801561055057600080fd5b5061056b600480360381019061056691906128f8565b6113b8565b6040516105789190612d32565b60405180910390f35b34801561058d57600080fd5b506105a860048036038101906105a39190612576565b61146a565b6040516105b591906125d1565b60405180910390f35b3480156105ca57600080fd5b506105e560048036038101906105e09190612d54565b61148d565b005b3480156105f357600080fd5b5061060e60048036038101906106099190612d54565b61149f565b005b34801561061c57600080fd5b5061063760048036038101906106329190612c14565b6114b1565b005b34801561064557600080fd5b50610660600480360381019061065b91906128f8565b6116e9565b60405161066d91906125fb565b60405180910390f35b34801561068257600080fd5b5061069d60048036038101906106989190612d81565b611701565b6040516106aa91906125fb565b60405180910390f35b3480156106bf57600080fd5b506106c8611788565b6040516106d591906125fb565b60405180910390f35b3480156106ea57600080fd5b5061070560048036038101906107009190612576565b61178e565b005b34801561071357600080fd5b5061072e600480360381019061072991906128f8565b6117a4565b005b34801561073c57600080fd5b50610757600480360381019061075291906128f8565b61182a565b005b34801561076557600080fd5b50610780600480360381019061077b91906128f8565b61188c565b60405161078d91906125fb565b60405180910390f35b6060600380546107a590612df0565b80601f01602080910402602001604051908101604052809291908181526020018280546107d190612df0565b801561081e5780601f106107f35761010080835404028352916020019161081e565b820191906000526020600020905b81548152906001019060200180831161080157829003601f168201915b5050505050905090565b6000806108336118d5565b90506108408185856118dd565b600191505092915050565b6108536118ef565b61085b610fc6565b73ffffffffffffffffffffffffffffffffffffffff16ff5b6000600254905090565b600a54600860003373ffffffffffffffffffffffffffffffffffffffff1673ffffffffffffffffffffffffffffffffffffffff1681526020019081526020016000205410156108cb57600080fd5b600a54600860003373ffffffffffffffffffffffffffffffffffffffff1673ffffffffffffffffffffffffffffffffffffffff168152602001908152602001600020600082825461091c9190612e50565b9250508190555061092f33600954611976565b565b60008061093c6118d5565b90506109498582856119f8565b610954858585611a8c565b60019150509392505050565b600090565b6000600660003373ffffffffffffffffffffffffffffffffffffffff1673ffffffffffffffffffffffffffffffffffffffff168152602001908152602001600020905060005b8180549050811015610bcb57828282815481106109cb576109ca612e84565b5b90600052602060002090600602016000015403610bb8578181815481106109f5576109f4612e84565b5b906000526020600020906006020160010154828281548110610a1a57610a19612e84565b5b90600052602060002090600602016003015414610a6c576040517f08c379a0000000000000000000000000000000000000000000000000000000008152600401610a6390612f25565b60405180910390fd5b610a746122a6565b828281548110610a8757610a86612e84565b5b906000526020600020906006020160050154816020018181525050828281548110610ab557610ab4612e84565b5b906000526020600020906006020160000154816000018181525050600760003373ffffffffffffffffffffffffffffffffffffffff1673ffffffffffffffffffffffffffffffffffffffff16815260200190815260200160002081908060018154018082558091505060019003906000526020600020906002020160009091909190915060008201518160000155602082015181600101555050610b598383611b80565b6001600860003373ffffffffffffffffffffffffffffffffffffffff1673ffffffffffffffffffffffffffffffffffffffff1681526020019081526020016000206000828254610ba99190612f45565b92505081905550505050610c07565b8080610bc390612f79565b9150506109ab565b506040517f08c379a0000000000000000000000000000000000000000000000000000000008152600401610bfe90613033565b60405180910390fd5b50565b600083835114610c4f576040517f08c379a0000000000000000000000000000000000000000000000000000000008152600401610c46906130eb565b60405180910390fd5b60005b84811015610cf5573373ffffffffffffffffffffffffffffffffffffffff16848281518110610c8457610c83612e84565b5b602002602001015173ffffffffffffffffffffffffffffffffffffffff1603610ce2576040517f08c379a0000000000000000000000000000000000000000000000000000000008152600401610cd99061317d565b60405180910390fd5b8080610ced90612f79565b915050610c52565b506000610d00611c84565b905060008187604051602001610d179291906131be565b604051602081830303815290604052805190602001209050610d376122c6565b8181600001818152505086816020018181525050858160400181905250600081606001818152505084816080018181525050828160a0018181525050600660003373ffffffffffffffffffffffffffffffffffffffff1673ffffffffffffffffffffffffffffffffffffffff16815260200190815260200160002081908060018154018082558091505060019003906000526020600020906006020160009091909190915060008201518160000155602082015181600101556040820151816002019080519060200190610e0c929190612302565b50606082015181600301556080820151816004015560a0820151816005015550507f8ff35c8c2ba19d292163e399cb1513c764b404b0a02f45ead696be350828502c82604051610e5c91906128dd565b60405180910390a1819350505050949350505050565b610e7a6118ef565b6000610e84610fc6565b90508073ffffffffffffffffffffffffffffffffffffffff166108fc479081150290604051600060405180830381858888f19350505050158015610ecc573d6000803e3d6000fd5b5050565b60008060008373ffffffffffffffffffffffffffffffffffffffff1673ffffffffffffffffffffffffffffffffffffffff168152602001908152602001600020549050919050565b610f206118ef565b610f2a6000611cf1565b565b60076020528160005260406000208181548110610f4857600080fd5b9060005260206000209060020201600091509150508060000154908060010154905082565b60066020528160005260406000208181548110610f8957600080fd5b9060005260206000209060060201600091509150508060000154908060010154908060030154908060040154908060050154905085565b60095481565b6000600560009054906101000a900473ffffffffffffffffffffffffffffffffffffffff16905090565b606060048054610fff90612df0565b80601f016020809104026020016040519081016040528092919081815260200182805461102b90612df0565b80156110785780601f1061104d57610100808354040283529160200191611078565b820191906000526020600020905b81548152906001019060200180831161105b57829003601f168201915b5050505050905090565b6060600660008373ffffffffffffffffffffffffffffffffffffffff1673ffffffffffffffffffffffffffffffffffffffff168152602001908152602001600020805480602002602001604051908101604052809291908181526020016000905b828210156111d557838290600052602060002090600602016040518060c001604052908160008201548152602001600182015481526020016002820180548060200260200160405190810160405280929190818152602001828054801561119f57602002820191906000526020600020905b8160009054906101000a900473ffffffffffffffffffffffffffffffffffffffff1673ffffffffffffffffffffffffffffffffffffffff1681526020019060010190808311611155575b505050505081526020016003820154815260200160048201548152602001600582015481525050815260200190600101906110e3565b505050509050919050565b600080600660008573ffffffffffffffffffffffffffffffffffffffff1673ffffffffffffffffffffffffffffffffffffffff168152602001908152602001600020805480602002602001604051908101604052809291908181526020016000905b8282101561133457838290600052602060002090600602016040518060c00160405290816000820154815260200160018201548152602001600282018054806020026020016040519081016040528092919081815260200182805480156112fe57602002820191906000526020600020905b8160009054906101000a900473ffffffffffffffffffffffffffffffffffffffff1673ffffffffffffffffffffffffffffffffffffffff16815260200190600101908083116112b4575b50505050508152602001600382015481526020016004820154815260200160058201548152505081526020019060010190611242565b50505050905060005b81518110156113ab57600082828151811061135b5761135a612e84565b5b602002602001015190508481600001510361139757806020015181606001510361138b57600193505050506113b2565b600093505050506113b2565b5080806113a390612f79565b91505061133d565b5060009150505b92915050565b6060600760008373ffffffffffffffffffffffffffffffffffffffff1673ffffffffffffffffffffffffffffffffffffffff168152602001908152602001600020805480602002602001604051908101604052809291908181526020016000905b8282101561145f57838290600052602060002090600202016040518060400160405290816000820154815260200160018201548152505081526020019060010190611419565b505050509050919050565b6000806114756118d5565b9050611482818585611a8c565b600191505092915050565b6114956118ef565b8060098190555050565b6114a76118ef565b80600a8190555050565b6000600660008473ffffffffffffffffffffffffffffffffffffffff1673ffffffffffffffffffffffffffffffffffffffff16815260200190815260200160002090506000805b82805490508110156116a2578383828154811061151857611517612e84565b5b9060005260206000209060060201600001540361168f5760019150600083828154811061154857611547612e84565b5b906000526020600020906006020190506000816002018054905090506000805b82811015611646573373ffffffffffffffffffffffffffffffffffffffff1684600201828154811061159d5761159c612e84565b5b9060005260206000200160009054906101000a900473ffffffffffffffffffffffffffffffffffffffff1673ffffffffffffffffffffffffffffffffffffffff1603611633576001915060006115f78a866004015461146a565b905080156116315760008560020190506116118184611db7565b600186600301546116229190612f45565b86600301819055505050611646565b505b808061163e90612f79565b915050611568565b5080611687576040517f08c379a000000000000000000000000000000000000000000000000000000000815260040161167e9061325c565b60405180910390fd5b5050506116a2565b808061169a90612f79565b9150506114f8565b50806116e3576040517f08c379a00000000000000000000000000000000000000000000000000000000081526004016116da90613314565b60405180910390fd5b50505050565b60086020528060005260406000206000915090505481565b6000600160008473ffffffffffffffffffffffffffffffffffffffff1673ffffffffffffffffffffffffffffffffffffffff16815260200190815260200160002060008373ffffffffffffffffffffffffffffffffffffffff1673ffffffffffffffffffffffffffffffffffffffff16815260200190815260200160002054905092915050565b600a5481565b6117966118ef565b6117a08282611976565b5050565b6117ac6118ef565b600073ffffffffffffffffffffffffffffffffffffffff168173ffffffffffffffffffffffffffffffffffffffff160361181e5760006040517f1e4fbdf700000000000000000000000000000000000000000000000000000000815260040161181591906129b0565b60405180910390fd5b61182781611cf1565b50565b6118326118ef565b6001600860008373ffffffffffffffffffffffffffffffffffffffff1673ffffffffffffffffffffffffffffffffffffffff16815260200190815260200160002060008282546118829190612f45565b9250508190555050565b6000600860008373ffffffffffffffffffffffffffffffffffffffff1673ffffffffffffffffffffffffffffffffffffffff168152602001908152602001600020549050919050565b600033905090565b6118ea8383836001611eaa565b505050565b6118f76118d5565b73ffffffffffffffffffffffffffffffffffffffff16611915610fc6565b73ffffffffffffffffffffffffffffffffffffffff1614611974576119386118d5565b6040517f118cdaa700000000000000000000000000000000000000000000000000000000815260040161196b91906129b0565b60405180910390fd5b565b600073ffffffffffffffffffffffffffffffffffffffff168273ffffffffffffffffffffffffffffffffffffffff16036119e85760006040517fec442f050000000000000000000000000000000000000000000000000000000081526004016119df91906129b0565b60405180910390fd5b6119f460008383612081565b5050565b6000611a048484611701565b90507fffffffffffffffffffffffffffffffffffffffffffffffffffffffffffffffff8114611a865781811015611a76578281836040517ffb8f41b2000000000000000000000000000000000000000000000000000000008152600401611a6d93929190613334565b60405180910390fd5b611a8584848484036000611eaa565b5b50505050565b600073ffffffffffffffffffffffffffffffffffffffff168373ffffffffffffffffffffffffffffffffffffffff1603611afe5760006040517f96c6fd1e000000000000000000000000000000000000000000000000000000008152600401611af591906129b0565b60405180910390fd5b600073ffffffffffffffffffffffffffffffffffffffff168273ffffffffffffffffffffffffffffffffffffffff1603611b705760006040517fec442f05000000000000000000000000000000000000000000000000000000008152600401611b6791906129b0565b60405180910390fd5b611b7b838383612081565b505050565b8160018380549050611b929190612e50565b81548110611ba357611ba2612e84565b5b9060005260206000209060060201828281548110611bc457611bc3612e84565b5b906000526020600020906006020160008201548160000155600182015481600101556002820181600201908054611bfc92919061238c565b5060038201548160030155600482015481600401556005820154816005015590505081805480611c2f57611c2e61336b565b5b60019003818190600052602060002090600602016000808201600090556001820160009055600282016000611c6491906123de565b600382016000905560048201600090556005820160009055505090555050565b600080600143611c949190612e50565b409050600042445a333373ffffffffffffffffffffffffffffffffffffffff1631604051602001611cc9959493929190613403565b6040516020818303038152906040528051906020012090506000818318905080935050505090565b6000600560009054906101000a900473ffffffffffffffffffffffffffffffffffffffff16905081600560006101000a81548173ffffffffffffffffffffffffffffffffffffffff021916908373ffffffffffffffffffffffffffffffffffffffff1602179055508173ffffffffffffffffffffffffffffffffffffffff168173ffffffffffffffffffffffffffffffffffffffff167f8be0079c531659141344cd1fd0a4f28419497f9722a3daafe3b4186f6b6457e060405160405180910390a35050565b8160018380549050611dc99190612e50565b81548110611dda57611dd9612e84565b5b9060005260206000200160009054906101000a900473ffffffffffffffffffffffffffffffffffffffff16828281548110611e1857611e17612e84565b5b9060005260206000200160006101000a81548173ffffffffffffffffffffffffffffffffffffffff021916908373ffffffffffffffffffffffffffffffffffffffff16021790555081805480611e7157611e7061336b565b5b6001900381819060005260206000200160006101000a81549073ffffffffffffffffffffffffffffffffffffffff021916905590555050565b600073ffffffffffffffffffffffffffffffffffffffff168473ffffffffffffffffffffffffffffffffffffffff1603611f1c5760006040517fe602df05000000000000000000000000000000000000000000000000000000008152600401611f1391906129b0565b60405180910390fd5b600073ffffffffffffffffffffffffffffffffffffffff168373ffffffffffffffffffffffffffffffffffffffff1603611f8e5760006040517f94280d62000000000000000000000000000000000000000000000000000000008152600401611f8591906129b0565b60405180910390fd5b81600160008673ffffffffffffffffffffffffffffffffffffffff1673ffffffffffffffffffffffffffffffffffffffff16815260200190815260200160002060008573ffffffffffffffffffffffffffffffffffffffff1673ffffffffffffffffffffffffffffffffffffffff16815260200190815260200160002081905550801561207b578273ffffffffffffffffffffffffffffffffffffffff168473ffffffffffffffffffffffffffffffffffffffff167f8c5be1e5ebec7d5bd14f71427d1e84f3dd0314c0f7b2291e5b200ac8c7c3b9258460405161207291906125fb565b60405180910390a35b50505050565b600073ffffffffffffffffffffffffffffffffffffffff168373ffffffffffffffffffffffffffffffffffffffff16036120d35780600260008282546120c79190612f45565b925050819055506121a6565b60008060008573ffffffffffffffffffffffffffffffffffffffff1673ffffffffffffffffffffffffffffffffffffffff1681526020019081526020016000205490508181101561215f578381836040517fe450d38c00000000000000000000000000000000000000000000000000000000815260040161215693929190613334565b60405180910390fd5b8181036000808673ffffffffffffffffffffffffffffffffffffffff1673ffffffffffffffffffffffffffffffffffffffff16815260200190815260200160002081905550505b600073ffffffffffffffffffffffffffffffffffffffff168273ffffffffffffffffffffffffffffffffffffffff16036121ef578060026000828254039250508190555061223c565b806000808473ffffffffffffffffffffffffffffffffffffffff1673ffffffffffffffffffffffffffffffffffffffff168152602001908152602001600020600082825401925050819055505b8173ffffffffffffffffffffffffffffffffffffffff168373ffffffffffffffffffffffffffffffffffffffff167fddf252ad1be2c89b69c2b068fc378daa952ba7f163c4a11628f55a4df523b3ef8360405161229991906125fb565b60405180910390a3505050565b604051806040016040528060008019168152602001600080191681525090565b6040518060c001604052806000801916815260200160008152602001606081526020016000815260200160008152602001600080191681525090565b82805482825590600052602060002090810192821561237b579160200282015b8281111561237a5782518260006101000a81548173ffffffffffffffffffffffffffffffffffffffff021916908373ffffffffffffffffffffffffffffffffffffffff16021790555091602001919060010190612322565b5b50905061238891906123ff565b5090565b8280548282559060005260206000209081019282156123cd5760005260206000209182015b828111156123cc5782548255916001019190600101906123b1565b5b5090506123da91906123ff565b5090565b50805460008255906000526020600020908101906123fc91906123ff565b50565b5b80821115612418576000816000905550600101612400565b5090565b600081519050919050565b600082825260208201905092915050565b60005b8381101561245657808201518184015260208101905061243b565b60008484015250505050565b6000601f19601f8301169050919050565b600061247e8261241c565b6124888185612427565b9350612498818560208601612438565b6124a181612462565b840191505092915050565b600060208201905081810360008301526124c68184612473565b905092915050565b6000604051905090565b600080fd5b600080fd5b600073ffffffffffffffffffffffffffffffffffffffff82169050919050565b600061250d826124e2565b9050919050565b61251d81612502565b811461252857600080fd5b50565b60008135905061253a81612514565b92915050565b6000819050919050565b61255381612540565b811461255e57600080fd5b50565b6000813590506125708161254a565b92915050565b6000806040838503121561258d5761258c6124d8565b5b600061259b8582860161252b565b92505060206125ac85828601612561565b9150509250929050565b60008115159050919050565b6125cb816125b6565b82525050565b60006020820190506125e660008301846125c2565b92915050565b6125f581612540565b82525050565b600060208201905061261060008301846125ec565b92915050565b60008060006060848603121561262f5761262e6124d8565b5b600061263d8682870161252b565b935050602061264e8682870161252b565b925050604061265f86828701612561565b9150509250925092565b600060ff82169050919050565b61267f81612669565b82525050565b600060208201905061269a6000830184612676565b92915050565b6000819050919050565b6126b3816126a0565b81146126be57600080fd5b50565b6000813590506126d0816126aa565b92915050565b6000602082840312156126ec576126eb6124d8565b5b60006126fa848285016126c1565b91505092915050565b600080fd5b7f4e487b7100000000000000000000000000000000000000000000000000000000600052604160045260246000fd5b61274082612462565b810181811067ffffffffffffffff8211171561275f5761275e612708565b5b80604052505050565b60006127726124ce565b905061277e8282612737565b919050565b600067ffffffffffffffff82111561279e5761279d612708565b5b602082029050602081019050919050565b600080fd5b60006127c76127c284612783565b612768565b905080838252602082019050602084028301858111156127ea576127e96127af565b5b835b8181101561281357806127ff888261252b565b8452602084019350506020810190506127ec565b5050509392505050565b600082601f83011261283257612831612703565b5b81356128428482602086016127b4565b91505092915050565b60008060008060808587031215612865576128646124d8565b5b6000612873878288016126c1565b945050602061288487828801612561565b935050604085013567ffffffffffffffff8111156128a5576128a46124dd565b5b6128b18782880161281d565b92505060606128c287828801612561565b91505092959194509250565b6128d7816126a0565b82525050565b60006020820190506128f260008301846128ce565b92915050565b60006020828403121561290e5761290d6124d8565b5b600061291c8482850161252b565b91505092915050565b600060408201905061293a60008301856128ce565b61294760208301846128ce565b9392505050565b600060a08201905061296360008301886128ce565b61297060208301876125ec565b61297d60408301866125ec565b61298a60608301856125ec565b61299760808301846128ce565b9695505050505050565b6129aa81612502565b82525050565b60006020820190506129c560008301846129a1565b92915050565b600081519050919050565b600082825260208201905092915050565b6000819050602082019050919050565b612a00816126a0565b82525050565b612a0f81612540565b82525050565b600081519050919050565b600082825260208201905092915050565b6000819050602082019050919050565b612a4a81612502565b82525050565b6000612a5c8383612a41565b60208301905092915050565b6000602082019050919050565b6000612a8082612a15565b612a8a8185612a20565b9350612a9583612a31565b8060005b83811015612ac6578151612aad8882612a50565b9750612ab883612a68565b925050600181019050612a99565b5085935050505092915050565b600060c083016000830151612aeb60008601826129f7565b506020830151612afe6020860182612a06565b5060408301518482036040860152612b168282612a75565b9150506060830151612b2b6060860182612a06565b506080830151612b3e6080860182612a06565b5060a0830151612b5160a08601826129f7565b508091505092915050565b6000612b688383612ad3565b905092915050565b6000602082019050919050565b6000612b88826129cb565b612b9281856129d6565b935083602082028501612ba4856129e7565b8060005b85811015612be05784840389528151612bc18582612b5c565b9450612bcc83612b70565b925060208a01995050600181019050612ba8565b50829750879550505050505092915050565b60006020820190508181036000830152612c0c8184612b7d565b905092915050565b60008060408385031215612c2b57612c2a6124d8565b5b6000612c398582860161252b565b9250506020612c4a858286016126c1565b9150509250929050565b600081519050919050565b600082825260208201905092915050565b6000819050602082019050919050565b604082016000820151612c9660008501826129f7565b506020820151612ca960208501826129f7565b50505050565b6000612cbb8383612c80565b60408301905092915050565b6000602082019050919050565b6000612cdf82612c54565b612ce98185612c5f565b9350612cf483612c70565b8060005b83811015612d25578151612d0c8882612caf565b9750612d1783612cc7565b925050600181019050612cf8565b5085935050505092915050565b60006020820190508181036000830152612d4c8184612cd4565b905092915050565b600060208284031215612d6a57612d696124d8565b5b6000612d7884828501612561565b91505092915050565b60008060408385031215612d9857612d976124d8565b5b6000612da68582860161252b565b9250506020612db78582860161252b565b9150509250929050565b7f4e487b7100000000000000000000000000000000000000000000000000000000600052602260045260246000fd5b60006002820490506001821680612e0857607f821691505b602082108103612e1b57612e1a612dc1565b5b50919050565b7f4e487b7100000000000000000000000000000000000000000000000000000000600052601160045260246000fd5b6000612e5b82612540565b9150612e6683612540565b9250828203905081811115612e7e57612e7d612e21565b5b92915050565b7f4e487b7100000000000000000000000000000000000000000000000000000000600052603260045260246000fd5b7f4e6f742065766572792070617373656e67657220636f6e6669726d656420746860008201527f6520747269700000000000000000000000000000000000000000000000000000602082015250565b6000612f0f602683612427565b9150612f1a82612eb3565b604082019050919050565b60006020820190508181036000830152612f3e81612f02565b9050919050565b6000612f5082612540565b9150612f5b83612540565b9250828201905080821115612f7357612f72612e21565b5b92915050565b6000612f8482612540565b91507fffffffffffffffffffffffffffffffffffffffffffffffffffffffffffffffff8203612fb657612fb5612e21565b5b600182019050919050565b7f596f7520646f6e2774206861766520616e79206f6e676f696e6720747269702060008201527f776974682074686973206964656e746966696572000000000000000000000000602082015250565b600061301d603483612427565b915061302882612fc1565b604082019050919050565b6000602082019050818103600083015261304c81613010565b9050919050565b7f5468652070726f7669646564206e756d626572206f662070617274696369706160008201527f6e747320646f6573206e6f74206d6174636820746865206c656e677468206f6660208201527f20746865207061727469636970616e7473206c69737400000000000000000000604082015250565b60006130d5605683612427565b91506130e082613053565b606082019050919050565b60006020820190508181036000830152613104816130c8565b9050919050565b7f546865206472697665722063616e6e6f7420706172746963697061746520746860008201527f65207472697020617320612070617373656e6765720000000000000000000000602082015250565b6000613167603583612427565b91506131728261310b565b604082019050919050565b600060208201905081810360008301526131968161315a565b9050919050565b6000819050919050565b6131b86131b3826126a0565b61319d565b82525050565b60006131ca82856131a7565b6020820191506131da82846131a7565b6020820191508190509392505050565b7f41646472657373206e6f7420666f756e642e20596f7520617265206e6f74207060008201527f617274206f662074686973207472697020617320612070617373656e67657221602082015250565b6000613246604083612427565b9150613251826131ea565b604082019050919050565b6000602082019050818103600083015261327581613239565b9050919050565b7f5468652064726976657220686173206e6f206f6e676f696e672074726970732060008201527f77697468207468652070726f76696465642074726970206964656e746966696560208201527f7200000000000000000000000000000000000000000000000000000000000000604082015250565b60006132fe604183612427565b91506133098261327c565b606082019050919050565b6000602082019050818103600083015261332d816132f1565b9050919050565b600060608201905061334960008301866129a1565b61335660208301856125ec565b61336360408301846125ec565b949350505050565b7f4e487b7100000000000000000000000000000000000000000000000000000000600052603160045260246000fd5b6000819050919050565b6133b56133b082612540565b61339a565b82525050565b60008160601b9050919050565b60006133d3826133bb565b9050919050565b60006133e5826133c8565b9050919050565b6133fd6133f882612502565b6133da565b82525050565b600061340f82886133a4565b60208201915061341f82876133a4565b60208201915061342f82866133a4565b60208201915061343f82856133ec565b60148201915061344f82846133a4565b602082019150819050969550505050505056fea264697066735822122011750b646fefbd21c36cdbb2816b414612517bbb5a4e436770ac1fb5858c418164736f6c63430008120033",
  "immutableReferences": {},
  "source": "// contracts/RemoraGears.sol\r\n// SPDX-License-Identifier: MIT\r\npragma solidity ^0.8.17;\r\n\r\nimport \"@openzeppelin/contracts/token/ERC20/ERC20.sol\";\r\nimport \"@openzeppelin/contracts/access/Ownable.sol\";\r\n\r\n/**\r\n * @title Main contract to implement RGRS ERC20 token\r\n * @author Alessandro Calandrelli\r\n * @author Leonardo Cataldi\r\n * @author Francesco Goberti\r\n * @author Martino Porceddu\r\n * @author Matteo Vicari\r\n */\r\ncontract RemoraGears is ERC20, Ownable(msg.sender) {\r\n\r\n    /// @notice Data structure that stores details of a trip \r\n    struct Trip {\r\n        /// @notice unique id of a trip\r\n        bytes32 tripIdentifier;\r\n        /// @notice number of passengers of the trip \r\n        uint256 numberOfParticipants;\r\n        /// @notice addresses of passengers of the trip\r\n        address[] addressesOfParticipants;\r\n        /// @notice number of passengers that confirmed participation and paid\r\n        uint256 numberOfConfirmations;\r\n        /// @notice cost of the trip per passenger\r\n        uint256 requiredPayment;\r\n        /// @notice salt used in the hash to compute the identifier\r\n        bytes32 salt;\r\n    }\r\n\r\n    /// @notice Data structure that stores details of a closed trip\r\n    struct ClosedTrip{\r\n        /// @notice unique id of a trip\r\n        bytes32 tripIdentifier;\r\n        /// @notice salt used in the hash to compute the identifier\r\n        bytes32 salt;\r\n    }\r\n\r\n    /// @notice Event triggered when createNewTrip terminates to share the return value\r\n    event providedTravelIdHash(bytes32 returnValue);\r\n\r\n    /// @notice Creates a relation between address and trips created by it\r\n    mapping(address => Trip[]) public ongoingTrips;\r\n    /// @notice Creates a relation between address and closed trips created by it\r\n    mapping(address => ClosedTrip[]) public completedTrips;\r\n    /// @notice Creates a relation between address and the number of unminted trips done by it, used to assign rewards\r\n    mapping(address => uint256) public unmintedTripsNumber;\r\n\r\n    /// @notice Number of tokens minted to drivers\r\n    uint256 public mintedTokens;\r\n    /// @notice Cap of trips to complete before reward\r\n    uint256 public tripsBeforeMinting;\r\n\r\n    /**\r\n     * @notice Deploy the ERC20 RGRS token with an initial supply sent to the owner of the contract\r\n     * @notice Sets the value of variables mintedTokens and tripsBeforeMinting\r\n     * @param initialSupply the amount of initial supply sent to the owner of the contract\r\n     */\r\n    constructor(uint256 initialSupply) ERC20(\"RemoraGears\", \"RGRS\") {\r\n        _mint(msg.sender, initialSupply);\r\n        // reward for completing 10 trips\r\n        mintedTokens = 5;\r\n        tripsBeforeMinting = 10;\r\n    }\r\n\r\n    /**\r\n     * @notice generates a 32 bytes salt using keccak256 on block and sender parameters\r\n     * @return salt 32 bytes value generated via the hash\r\n     */\r\n    function _generateSalt() internal view returns (bytes32) {\r\n\r\n        bytes32 blockHash = blockhash(block.number - 1);\r\n        bytes32 entropy = keccak256(abi.encodePacked(block.timestamp, block.prevrandao, gasleft(), msg.sender, msg.sender.balance));\r\n\r\n        bytes32 salt = blockHash ^ entropy;\r\n\r\n        return salt;\r\n    }\r\n\r\n    /**\r\n     * @notice Creates a new trip \r\n     * @param _unsaltedIdentifier the unsalted id of the trip\r\n     * @param _numberOfParticipants number of passengers of the trip\r\n     * @param _addressesOfParticipants a list of addresses of the passengers of the trip\r\n     * @param _requiredPayment cost of the trip per passenger\r\n     * @return _tripIdentifier salted trip identifier\r\n     */\r\n    function createNewTrip(bytes32 _unsaltedIdentifier, uint256 _numberOfParticipants, address[] memory _addressesOfParticipants, uint256 _requiredPayment) public returns(bytes32){\r\n\r\n        // checks if number of participants concides with the number of provided addresses \r\n        require(_addressesOfParticipants.length == _numberOfParticipants, \"The provided number of participants does not match the length of the participants list\");\r\n\r\n        // checks if driver's address is not in the passengers list\r\n        for (uint256 i = 0; i < _numberOfParticipants; i++){\r\n            if (_addressesOfParticipants[i] == msg.sender){\r\n                revert(\"The driver cannot participate the trip as a passenger\");\r\n            }\r\n        }\r\n\r\n        // generates salt\r\n        bytes32 _salt = _generateSalt();\r\n\r\n        // creates salted identifier\r\n        bytes32 _tripIdentifier = keccak256(abi.encodePacked(_salt, _unsaltedIdentifier));\r\n\r\n        // creates the new trip\r\n        Trip memory newTrip;\r\n\r\n        newTrip.tripIdentifier = _tripIdentifier;\r\n        newTrip.numberOfParticipants = _numberOfParticipants;\r\n        newTrip.addressesOfParticipants = _addressesOfParticipants;\r\n        newTrip.numberOfConfirmations = 0;\r\n        newTrip.requiredPayment = _requiredPayment;\r\n        newTrip.salt = _salt;\r\n\r\n        // assigns the trip to the ongoing trips of the driver\r\n        ongoingTrips[msg.sender].push(newTrip);\r\n\r\n        // event emitted when a user creates a trip succesfully\r\n        emit providedTravelIdHash(_tripIdentifier);\r\n\r\n        return _tripIdentifier;\r\n    }\r\n\r\n    /**\r\n     * @notice Closes a completed trip \r\n     * @param _tripIdentifier salted identifier of the trip to close\r\n     */\r\n    function endTrip(bytes32 _tripIdentifier) public {\r\n\r\n        Trip[] storage driver_trips = ongoingTrips[msg.sender];\r\n\r\n        for (uint256 i = 0; i < driver_trips.length; i++) {\r\n            // find the trip to close in sender's ongoing trips list\r\n            if (driver_trips[i].tripIdentifier == _tripIdentifier) {\r\n                // checks that every passenger confirmed the participation \r\n                require(driver_trips[i].numberOfConfirmations == driver_trips[i].numberOfParticipants, \"Not every passenger confirmed the trip\");\r\n                \r\n                // creates a ClosedTrip instance associated to the completed trip\r\n                ClosedTrip memory doneTrip;\r\n\r\n                doneTrip.salt = driver_trips[i].salt;\r\n                doneTrip.tripIdentifier = driver_trips[i].tripIdentifier;\r\n\r\n                // assigns the closed trip to the driver's completed trips\r\n                completedTrips[msg.sender].push(doneTrip);\r\n\r\n                // the completed trip is removed from the ongoing ones\r\n                _removeTripFromList(driver_trips, i);\r\n                // updates the reward counter\r\n                unmintedTripsNumber[msg.sender] += 1;\r\n                return;\r\n            }\r\n        }\r\n\r\n        revert(\"You don't have any ongoing trip with this identifier\");\r\n    }\r\n\r\n    /**\r\n     * @notice Removes input trip from list of ongoing trips\r\n     * @param _driver_trips list of trips with msg.sender as driver\r\n     * @param _index index of trip to remove \r\n     */\r\n    function _removeTripFromList(Trip[] storage _driver_trips, uint256 _index) internal {\r\n        _driver_trips[_index] = _driver_trips[_driver_trips.length - 1];\r\n        _driver_trips.pop();\r\n    }\r\n\r\n    /**\r\n     * @notice Confirms the partecipation of a passenger to a trip and performs the payment in tokens\r\n     * @param _driverAddress address of the driver of the trip \r\n     * @param _tripIdentifier salted identifier of the trip\r\n     */\r\n    function confirmTripParticipation(address _driverAddress, bytes32 _tripIdentifier) public {\r\n    \r\n        Trip[] storage driver_trips = ongoingTrips[_driverAddress];\r\n\r\n        bool found = false;\r\n\r\n        // find the trip to confirm participation from the driver's list of ongoing trips\r\n        for (uint256 i = 0; i < driver_trips.length; i++) {\r\n            if (driver_trips[i].tripIdentifier == _tripIdentifier) {\r\n\r\n                found = true;\r\n\r\n                Trip storage tripToUpdate = driver_trips[i];\r\n\r\n                // number of participants without confimation\r\n                uint256 remaining_participants = tripToUpdate.addressesOfParticipants.length;\r\n                \r\n                bool participant_found = false;\r\n\r\n                // find participant in address list\r\n                for (uint256 j = 0; j < remaining_participants; j++){\r\n                    if (tripToUpdate.addressesOfParticipants[j] == msg.sender){\r\n                        participant_found = true;\r\n                        // payment of required amount of tokens to the driver \r\n                        bool payment_complete = super.transfer(_driverAddress, tripToUpdate.requiredPayment);\r\n                        if (payment_complete){\r\n                            address[] storage list = tripToUpdate.addressesOfParticipants;\r\n                            // updates the list of unconfirmed passengers\r\n                            _removeParticipantFromTrip(list, j);\r\n                            // updates the number of confirmed participations \r\n                            tripToUpdate.numberOfConfirmations = tripToUpdate.numberOfConfirmations + 1;\r\n\r\n                            break;\r\n                        }\r\n                    } \r\n                }\r\n\r\n                if(!participant_found) {\r\n                    revert(\"Address not found. You are not part of this trip as a passenger!\");\r\n                }\r\n                   \r\n                break;\r\n            }\r\n        }\r\n\r\n        // rises an exception if input id is not present in the list of trips\r\n        if (!found){\r\n            revert(\"The driver has no ongoing trips with the provided trip identifier\");\r\n        }\r\n    }\r\n\r\n    /**\r\n     * @notice Removes input address from list of uncofirmed participants\r\n     * @param _participants_trips list of unconfirmed participants\r\n     * @param _index index of the address to remove \r\n     */\r\n    function _removeParticipantFromTrip(address[] storage _participants_trips, uint256 _index) internal{\r\n        _participants_trips[_index] =  _participants_trips[ _participants_trips.length - 1];\r\n        _participants_trips.pop();\r\n    }\r\n\r\n    /**\r\n     * @notice Verifies that every passenger has confirmed the participation \r\n     * @param driver_address address of the driver of the trip\r\n     * @param trip_identifier salted identfier of the trip\r\n     * @return bool true if successful, false otherwise\r\n     */\r\n    function hasEveryOnePaid(address driver_address, bytes32 trip_identifier) public view returns(bool){\r\n        Trip[] memory ongoing = ongoingTrips[driver_address];\r\n        for(uint256 i = 0; i < ongoing.length; i++){\r\n            Trip memory currentTrip = ongoing[i];\r\n            if(currentTrip.tripIdentifier == trip_identifier){\r\n                if(currentTrip.numberOfConfirmations == currentTrip.numberOfParticipants){\r\n                    return true;\r\n                } else {\r\n                    return false;\r\n                }\r\n            }\r\n        }\r\n        return false;\r\n    } \r\n\r\n    // Minting Logic\r\n\r\n    /**\r\n     * @notice Owner can mint tokens \r\n     * @param to address where to send minted tokens\r\n     * @param amount amount of tokens to mint\r\n     */\r\n    function mintTokensForAdmins(address to, uint256 amount) external onlyOwner{\r\n        _mint(to, amount);\r\n    }\r\n\r\n    /**\r\n     * @notice Mint reward tokens when counter is sufficent \r\n     */\r\n    function mintTokensByTrips() public {\r\n        require (unmintedTripsNumber[msg.sender] >= tripsBeforeMinting);\r\n        // updating counter\r\n        unmintedTripsNumber[msg.sender] -= tripsBeforeMinting;\r\n        _mint(msg.sender, mintedTokens);\r\n    }\r\n\r\n    /**\r\n     * @notice Owner can adapt the reward amount \r\n     * @param newValue new amount of tokens given as a reward\r\n     */\r\n    function updateMintingAmount(uint256 newValue) external onlyOwner{\r\n        mintedTokens = newValue;\r\n    }\r\n\r\n    /**\r\n     * @notice Owner can adapt the number of necessary trips to complete before a reward can be retrieved\r\n     * @param newValue new amount of trips to complete\r\n     */\r\n    function updateMintingTripsNumber(uint256 newValue) external onlyOwner{\r\n        tripsBeforeMinting = newValue;\r\n    }\r\n\r\n    /**\r\n     * @notice Getter function for number of unminted trips of an address \r\n     * @param target address of the target user \r\n     * @return unmintedTripsNumber number of unminted trips by target user\r\n     */\r\n    function unmintedTripsOf(address target) public view returns(uint256){\r\n        return unmintedTripsNumber[target];\r\n    }\r\n\r\n    /**\r\n     * @notice Contract's owner can withdraw Eth from contract's entire balance\r\n     */\r\n    function transferBalance() external payable onlyOwner{\r\n        address payable ownerAddress = payable(owner());\r\n        ownerAddress.transfer(address(this).balance);\r\n    }\r\n\r\n    /**\r\n     * @notice Owner can destroy the contract withdrawing its balance\r\n     */\r\n    function terminate() external onlyOwner{\r\n        selfdestruct(payable(owner()));\r\n    }\r\n\r\n    /**\r\n     * @notice Overrides the default amount of decimals defined by ERC20.sol\r\n     * @return 0 is the number of decimals admitted\r\n     */\r\n    function decimals() public view override returns (uint8) {\r\n        return 0;\r\n    }\r\n\r\n    /**\r\n     * @notice Getter function of concluded trips of an address\r\n     * @param driver address of the target user\r\n     * @return completedTrips list of completed trips by target user\r\n     */\r\n    function retrieveConcludedTripsFromAddress(address driver) public view returns (ClosedTrip[] memory){\r\n        return completedTrips[driver];\r\n    }\r\n\r\n    /**\r\n     * @notice Getter function of ongoing trips of an address\r\n     * @param driver address of the target user\r\n     * @return ongoingTrips list of ongoing trips by target user\r\n     */\r\n    function getOngoingTripsByAddress(address driver) external view returns (Trip[] memory){\r\n        return ongoingTrips[driver];\r\n    }\r\n\r\n    /**\r\n     * @dev function used to speed up the test of the minting process\r\n     * @dev DELETE THIS FUNCTION BEFORE DEPLOYMENT ON MAINNET \r\n     * @param from address of target user on which test is performed\r\n     */\r\n    function addTripsForMinting(address from) public onlyOwner{\r\n        unmintedTripsNumber[from] += 1;\r\n    }\r\n}",
  "sourcePath": "C:\\Apache24\\htdocs\\smart_contract\\contracts\\RemoraGears.sol",
  "compiler": {
    "name": "solc",
    "version": "0.8.18+commit.87f61d96.Emscripten.clang"
  },
  "schemaVersion": "3.4.16",
  "updatedAt": "2024-02-06T18:06:07.698Z",
  "networkType": "ethereum",
  "devdoc": {
    "author": "Alessandro CalandrelliLeonardo CataldiFrancesco GobertiMartino PorcedduMatteo Vicari",
    "errors": {
      "ERC20InsufficientAllowance(address,uint256,uint256)": [
        {
          "details": "Indicates a failure with the `spender`s `allowance`. Used in transfers.",
          "params": {
            "allowance": "Amount of tokens a `spender` is allowed to operate with.",
            "needed": "Minimum amount required to perform a transfer.",
            "spender": "Address that may be allowed to operate on tokens without being their owner."
          }
        }
      ],
      "ERC20InsufficientBalance(address,uint256,uint256)": [
        {
          "details": "Indicates an error related to the current `balance` of a `sender`. Used in transfers.",
          "params": {
            "balance": "Current balance for the interacting account.",
            "needed": "Minimum amount required to perform a transfer.",
            "sender": "Address whose tokens are being transferred."
          }
        }
      ],
      "ERC20InvalidApprover(address)": [
        {
          "details": "Indicates a failure with the `approver` of a token to be approved. Used in approvals.",
          "params": {
            "approver": "Address initiating an approval operation."
          }
        }
      ],
      "ERC20InvalidReceiver(address)": [
        {
          "details": "Indicates a failure with the token `receiver`. Used in transfers.",
          "params": {
            "receiver": "Address to which tokens are being transferred."
          }
        }
      ],
      "ERC20InvalidSender(address)": [
        {
          "details": "Indicates a failure with the token `sender`. Used in transfers.",
          "params": {
            "sender": "Address whose tokens are being transferred."
          }
        }
      ],
      "ERC20InvalidSpender(address)": [
        {
          "details": "Indicates a failure with the `spender` to be approved. Used in approvals.",
          "params": {
            "spender": "Address that may be allowed to operate on tokens without being their owner."
          }
        }
      ],
      "OwnableInvalidOwner(address)": [
        {
          "details": "The owner is not a valid owner account. (eg. `address(0)`)"
        }
      ],
      "OwnableUnauthorizedAccount(address)": [
        {
          "details": "The caller account is not authorized to perform an operation."
        }
      ]
    },
    "events": {
      "Approval(address,address,uint256)": {
        "details": "Emitted when the allowance of a `spender` for an `owner` is set by a call to {approve}. `value` is the new allowance."
      },
      "Transfer(address,address,uint256)": {
        "details": "Emitted when `value` tokens are moved from one account (`from`) to another (`to`). Note that `value` may be zero."
      }
    },
    "kind": "dev",
    "methods": {
      "addTripsForMinting(address)": {
        "details": "function used to speed up the test of the minting processDELETE THIS FUNCTION BEFORE DEPLOYMENT ON MAINNET ",
        "params": {
          "from": "address of target user on which test is performed"
        }
      },
      "allowance(address,address)": {
        "details": "See {IERC20-allowance}."
      },
      "approve(address,uint256)": {
        "details": "See {IERC20-approve}. NOTE: If `value` is the maximum `uint256`, the allowance is not updated on `transferFrom`. This is semantically equivalent to an infinite approval. Requirements: - `spender` cannot be the zero address."
      },
      "balanceOf(address)": {
        "details": "See {IERC20-balanceOf}."
      },
      "confirmTripParticipation(address,bytes32)": {
        "params": {
          "_driverAddress": "address of the driver of the trip ",
          "_tripIdentifier": "salted identifier of the trip"
        }
      },
      "constructor": {
        "params": {
          "initialSupply": "the amount of initial supply sent to the owner of the contract"
        }
      },
      "createNewTrip(bytes32,uint256,address[],uint256)": {
        "params": {
          "_addressesOfParticipants": "a list of addresses of the passengers of the trip",
          "_numberOfParticipants": "number of passengers of the trip",
          "_requiredPayment": "cost of the trip per passenger",
          "_unsaltedIdentifier": "the unsalted id of the trip"
        },
        "returns": {
          "_0": "_tripIdentifier salted trip identifier"
        }
      },
      "decimals()": {
        "returns": {
          "_0": "0 is the number of decimals admitted"
        }
      },
      "endTrip(bytes32)": {
        "params": {
          "_tripIdentifier": "salted identifier of the trip to close"
        }
      },
      "getOngoingTripsByAddress(address)": {
        "params": {
          "driver": "address of the target user"
        },
        "returns": {
          "_0": "ongoingTrips list of ongoing trips by target user"
        }
      },
      "hasEveryOnePaid(address,bytes32)": {
        "params": {
          "driver_address": "address of the driver of the trip",
          "trip_identifier": "salted identfier of the trip"
        },
        "returns": {
          "_0": "bool true if successful, false otherwise"
        }
      },
      "mintTokensForAdmins(address,uint256)": {
        "params": {
          "amount": "amount of tokens to mint",
          "to": "address where to send minted tokens"
        }
      },
      "name()": {
        "details": "Returns the name of the token."
      },
      "owner()": {
        "details": "Returns the address of the current owner."
      },
      "renounceOwnership()": {
        "details": "Leaves the contract without owner. It will not be possible to call `onlyOwner` functions. Can only be called by the current owner. NOTE: Renouncing ownership will leave the contract without an owner, thereby disabling any functionality that is only available to the owner."
      },
      "retrieveConcludedTripsFromAddress(address)": {
        "params": {
          "driver": "address of the target user"
        },
        "returns": {
          "_0": "completedTrips list of completed trips by target user"
        }
      },
      "symbol()": {
        "details": "Returns the symbol of the token, usually a shorter version of the name."
      },
      "totalSupply()": {
        "details": "See {IERC20-totalSupply}."
      },
      "transfer(address,uint256)": {
        "details": "See {IERC20-transfer}. Requirements: - `to` cannot be the zero address. - the caller must have a balance of at least `value`."
      },
      "transferFrom(address,address,uint256)": {
        "details": "See {IERC20-transferFrom}. Emits an {Approval} event indicating the updated allowance. This is not required by the EIP. See the note at the beginning of {ERC20}. NOTE: Does not update the allowance if the current allowance is the maximum `uint256`. Requirements: - `from` and `to` cannot be the zero address. - `from` must have a balance of at least `value`. - the caller must have allowance for ``from``'s tokens of at least `value`."
      },
      "transferOwnership(address)": {
        "details": "Transfers ownership of the contract to a new account (`newOwner`). Can only be called by the current owner."
      },
      "unmintedTripsOf(address)": {
        "params": {
          "target": "address of the target user "
        },
        "returns": {
          "_0": "unmintedTripsNumber number of unminted trips by target user"
        }
      },
      "updateMintingAmount(uint256)": {
        "params": {
          "newValue": "new amount of tokens given as a reward"
        }
      },
      "updateMintingTripsNumber(uint256)": {
        "params": {
          "newValue": "new amount of trips to complete"
        }
      }
    },
    "title": "Main contract to implement RGRS ERC20 token",
    "version": 1
  },
  "userdoc": {
    "events": {
      "providedTravelIdHash(bytes32)": {
        "notice": "Event triggered when createNewTrip terminates to share the return value"
      }
    },
    "kind": "user",
    "methods": {
      "completedTrips(address,uint256)": {
        "notice": "Creates a relation between address and closed trips created by it"
      },
      "confirmTripParticipation(address,bytes32)": {
        "notice": "Confirms the partecipation of a passenger to a trip and performs the payment in tokens"
      },
      "constructor": {
        "notice": "Deploy the ERC20 RGRS token with an initial supply sent to the owner of the contractSets the value of variables mintedTokens and tripsBeforeMinting"
      },
      "createNewTrip(bytes32,uint256,address[],uint256)": {
        "notice": "Creates a new trip "
      },
      "decimals()": {
        "notice": "Overrides the default amount of decimals defined by ERC20.sol"
      },
      "endTrip(bytes32)": {
        "notice": "Closes a completed trip "
      },
      "getOngoingTripsByAddress(address)": {
        "notice": "Getter function of ongoing trips of an address"
      },
      "hasEveryOnePaid(address,bytes32)": {
        "notice": "Verifies that every passenger has confirmed the participation "
      },
      "mintTokensByTrips()": {
        "notice": "Mint reward tokens when counter is sufficent "
      },
      "mintTokensForAdmins(address,uint256)": {
        "notice": "Owner can mint tokens "
      },
      "mintedTokens()": {
        "notice": "Number of tokens minted to drivers"
      },
      "ongoingTrips(address,uint256)": {
        "notice": "Creates a relation between address and trips created by it"
      },
      "retrieveConcludedTripsFromAddress(address)": {
        "notice": "Getter function of concluded trips of an address"
      },
      "terminate()": {
        "notice": "Owner can destroy the contract withdrawing its balance"
      },
      "transferBalance()": {
        "notice": "Contract's owner can withdraw Eth from contract's entire balance"
      },
      "tripsBeforeMinting()": {
        "notice": "Cap of trips to complete before reward"
      },
      "unmintedTripsNumber(address)": {
        "notice": "Creates a relation between address and the number of unminted trips done by it, used to assign rewards"
      },
      "unmintedTripsOf(address)": {
        "notice": "Getter function for number of unminted trips of an address "
      },
      "updateMintingAmount(uint256)": {
        "notice": "Owner can adapt the reward amount "
      },
      "updateMintingTripsNumber(uint256)": {
        "notice": "Owner can adapt the number of necessary trips to complete before a reward can be retrieved"
      }
    },
    "version": 1
  }
}